:0200000280007C
:10000000F008002075030800710308007103080060
:10001000710308007103080071030800000000006C
:100020000000000000000000000000007103080054
:10003000710308000000000071030800710308004C
:1000400071030800710308007103080071030800C0
:1000500071030800710308007103080071030800B0
:10006000150D08007103080000000000710308006E
:10007000710308007103080071030800000000000C
:1000800000000000710308007103080071030800FC
:100090007103080071030800710308007103080070
:1000A0007103080000000000710308004D050800FE
:1000B0007103080071030800D905080071030800E6
:1000C0007103080071030800710308007103080040
:1000D000C50B0800710308007103080071030800D4
:1000E000710308007103080071030800D9020800B9
:1000F0007103080010B5054C237833B9044B13B1D4
:100100000448AFF300800123237010BD3C0400209D
:1001100000000000781408000C4B43B10C4810B5E7
:100120000C49AFF300800C48036823B910BD0A489E
:10013000036833B97047094B002BF7D0BDE8104076
:100140001847064B002BF5D0184700BF00000000F1
:100150007814080040040020781408000000000013
:10016000F0B45718082FD4BF00230123082998BFE3
:10017000082A5CD80D46002B59D12E4A136823F06B
:100180000103136013692C4B4FF440745C641C6FC3
:1001900024F003041C6703245C605C66A3F5006321
:1001A000264CC3F80C41D3F8004144F40064C3F872
:1001B00000415061002419E01E4801F110035B0169
:1001C000C2180026566000EB41124FF00056C2F8EC
:1001D00008624FF08076C650D2F81C3243F4000318
:1001E000C2F81C3201238B401C430131B942E3DDCC
:1001F00000230DE00F4901EB43124FF00050C2F80D
:10020000080203F1100252014FF040708850013390
:10021000AB42EFDB074B5C604FF40061084A516072
:100220001A6842F001021A600020F0BC70470120F9
:10023000FBE700BF00400B40000E0E402B100010EB
:1002400000E100E008B502220121014B984708BDFA
:10025000610108004B0103F1402303F53023D3F87B
:10026000103213F4000F33D070B44B0103F140236C
:1002700003F53023D3F81442D3F81822D3F80852E8
:10028000C5F38A450580D3F81052C5F30345857040
:10029000002303E0C618F270120A0133AB4205DAFC
:1002A000032BF7DCC618F470240AF6E7094B01F1BA
:1002B000100252014FF08070985003EB4111D1F8B9
:1002C0001C3243F40003C1F81C32002070BC70479C
:1002D0000120704700400B4010B5154B1C6914F00D
:1002E000060F19D014F0020F08D114F0040F0AD031
:1002F00002211048104B9847002309E001210D48C6
:100300000D4B9847F8E70D480D4B9847F4E701333C
:10031000084A92789342FADB14F0010F02D00122CE
:10032000034B9A604FF40062064BC3F8842110BD62
:1003300000400B407C04002055020800F413080024
:10034000A10B080000E100E04022054BC3F80021AA
:10035000A3F5C3334FF480325A6002221A6170470A
:1003600000060E40014B1862704700BF00800C4031
:10037000FEE7000008B5114B114A9A4209D00F4B15
:100380000F4A03E011681960043304320D498B42AF
:10039000F8D30D4B02E000221A6004330B4A93425B
:1003A000F9D30B4B23F0604323F07F03094A93609A
:1003B000094B9847094B9847FEE700BF0000002013
:1003C000781408003C0400203C040020F0040020C5
:1003D0000000080000ED00E085120800DD060800BE
:1003E0004FF48063204A136002F5007213601F4BC4
:1003F0001B6A13F0807F07D11D4A1C4B1A621B4BEE
:100400009B6E13F0010FFAD01A4A184B1A62174B61
:100410009B6E13F4803FFAD0144A136B23F003034E
:1004200043F001031363114B9B6E13F0080FFAD0D6
:10043000114A0E4B9A620D4B9B6E13F0020FFAD0CD
:1004400011220A4B1A63094B9B6E13F0080FFAD066
:100450001222064B1A63054B9B6E13F0080FFAD05D
:10046000064A074B1A607047000A0E4000060E400D
:100470000908370009083701013F0D2000BD0105BB
:10048000000000202022054BC3F80021044B8022ED
:100490005A6001221A6102221A60704700060E405B
:1004A00000000C40014B186D704700BF00000C406D
:1004B00030B4029C451AE01A00FB05F0521A90FB7A
:1004C000F2F01844844203DB834202DD184600E068
:1004D000204630BC70470000154B4FF090421A6127
:1004E000144AC3F80C210132C3F80C21124AA3F5B7
:1004F000C023A3F2E4531A604FF48042183B1A6001
:100500000E4B4FF45272DA6140225A6010220C49AD
:100510000A605A620B4A4FF0006111604FF080414F
:1005200011600521084A116001221A60704700BF5E
:1005300000060E401B00001040D10C000040084097
:100540002400084000E100E0000008402DE9F843E5
:10055000184B1B68184B1B68184B1A6801321A603D
:100560005B68B3F5004F01DBA3F58033134CA26841
:10057000D31AE360E368226913442361E068104FF3
:10058000B847104D104E2968B04780460F4968683B
:10059000B04781462069B8474946B04701464046C2
:1005A0000B4B98470B4B9847606101232B72BDE8BA
:1005B000F88300BF20000840600008405804002075
:1005C000F10E080004000020990F08000AD7A33C90
:1005D000890D0800391208000B4B1B6A0B4B0122D6
:1005E0001A765B7E43B1094B5B7EDBB2012B06D0F2
:1005F0000022064B5A767047044B5A767047022207
:10060000024B5A76704700BF004008405804002053
:10061000234B5B7E13B9234B5B7A53B9204B5B7E34
:10062000DBB2012B12D01E4B5B7EDBB2022B20D043
:10063000704700231B4A5372194A13761A4A012342
:10064000536304235363194A13607047144B1B7E92
:10065000002BE8D0124A00231376154BDB6B5B08A6
:100660001B029BB2D36104230F4A13630F4A13602A
:1006700070470B4B1B7E002BDAD010B4084A0021C8
:1006800011760B4BDB6BC3F347030120064C206351
:10069000D46923435360034B5872517610BCC7E7AB
:1006A000580400200400002000140E4000400840C0
:1006B00000120E40074B1A680221074B5963054B85
:1006C0001B689A42FBD00222034B1A630022014BA3
:1006D0001A6170475804002000140E402DE9F04FB5
:1006E000E7B04FF40042714B5A60714B9847714B21
:1006F0009847714B9847714B9847714B9847714B8E
:1007000098477148714B9847714B4FF480521A606B
:100710001A614FF4FF725A616E4A4FF4005313612D
:10072000D2F80C3143F0805343F00D03C2F80C3182
:10073000694B40F207621A601A6140F202621A6362
:100740004FF00008C146C2468EE05A1E66A901EB72
:10075000820151F8C80C66A901EB830141F8C80C6D
:1007600002A951F8220041F823001346002BECDCCB
:1007700000221446104610E066AB03EB820353F8E8
:10078000C83C184402AB53F82230544981FB03E1C2
:10079000DB17C3EB21131C440132312AECDD4F4B34
:1007A00083FB0023C017C0EB2310312868DC002333
:1007B00000936FF0630332221946DFF82CB1D8475B
:1007C000474B9847B4F5FA6F04DABAF1000F01D13C
:1007D0004FF0010ABAF1000F02D00EB14FF0000A3B
:1007E00041F2883300933F4B00226FF0FE016842D4
:1007F0003D4CA0473D4B98605B69002B48DD4FF4B2
:100800008062354B5A63394B58690028B8BF404263
:10081000374B984729463748374B9847B8F1000F70
:1008200001D1002F39D1B9F1000F07D136B14FF402
:100830008052274B5A6300222C4B1A602B4B1B68AB
:100840000A2B03DD4FF48052214B1A63274B1A68A1
:100850004EF660239A4202DD6422244B1A60274B35
:100860001B7AEBB9B846B146254BDA78643A349234
:100870009D79DF791E7A234B98470290312375E7E3
:100880006422009200233221DFF85CB0D84797E75A
:100890004FF48062104B1A63B5E71B4B9847C2E7D1
:1008A0000022164B1A72194B9847DBE7501A0E407C
:1008B000E1030800890C0800F50B08008504080016
:1008C00049030800D904080077373F0045020800B3
:1008D00000120E4000060E4000140E401F85EB5122
:1008E000690C080078ECFFFFB104080058040020F0
:1008F0006503080020140800A10B08000400002074
:100900007C040020A5040800B506080011060800B4
:1009100008B5C8B2014B984708BD00BFF10C0800EC
:100920002DE9F04107460E46151E02DD0A4600215C
:1009300004E04FF020080EE0013101321078002869
:10094000FAD1A94201DA6D1A00E0002513F0020F76
:1009500006D14FF0200813F001040AD0002410E063
:100960004FF03008F7E7414638460D4B98470134C1
:10097000013D002DF7DC04E03846094B984701346F
:10098000013631780029F7D105E041463846044B5D
:1009900098470134013D002DF7DC2046BDE8F08189
:1009A00011090800F0B585B007460C9851B11E46F4
:1009B0000C4613B10A2A12D0002604AD002305F814
:1009C000013D18E030238DF8043000238DF8053008
:1009D0000B9B0A9A01A938461B4CA04729E0002925
:1009E00001DB0026E9E74C420126E6E7303305F853
:1009F000013DB4FBF2F44CB1B4FBF2F302FB134340
:100A0000092BF3DDA0F13A010B44EFE756B10A9B45
:100A10001BB10B9B13F0020F0DD12D2305F8013CE8
:100A2000013D00260B9B0A9A29463846064CA047F2
:100A3000304405B0F0BD2D213846044B98470A9B41
:100A4000013B0A93EEE700BF2109080011090800E5
:100A5000F0B589B006460C460592002581E0A21C3F
:100A600001238BE0013443F002032278302AF9D0CD
:100A7000002206E002EB82025000A1F130020244A3
:100A800001342178A1F13000C0B20928F2D97329CC
:100A900018D0642922D078292FD058293CD0752924
:100AA00049D063295CD10599081D059009788DF816
:100AB0001C1000218DF81D1007A93046344FB8478F
:100AC00005444DE00599081D0590096821B130469F
:100AD0002F4FB847054443E02E49F8E70599081D14
:100AE00005900968612002900193009201230A2277
:100AF0003046294FB847054432E00599081D059056
:100B00000968612002900193009200231022304670
:100B1000214FB847054423E00599081D0590096851
:100B200041200290019300920023102230461A4F78
:100B3000B847054414E00599081D0590096861202F
:100B400002900193009200230A223046124FB847C8
:100B5000054405E0144621783046104B984701358E
:100B60000134237863B1252BF5D1621C63783BB146
:100B7000252BEFD02D2B3FF472AF0023144674E7E2
:100B800016B1336800221A70284609B0F0BD00BFC4
:100B90002109080028140800A50908001109080007
:100BA0000FB400B583B004AA52F8041B01920020D0
:100BB000034B984703B05DF804EB04B0704700BFE7
:100BC000510A080008B5074A136801331360064943
:100BD00081FB0321DB17C3EBA1110448044B9847A9
:100BE00008BD00BF780400201F85EB5120140800C9
:100BF000A10B0800174AD2F8003143F01003C2F8E5
:100C00000031154B1A6942F400221A615A6842F405
:100C100000225A601A6F42F400221A670F4AD2F873
:100C2000E43023F00103C2F8E43040F20A220C4B16
:100C30001A604FF4CD620C331A607B22083B1A60B5
:100C40002022A3F528731A60064A136843F00103B3
:100C50001360704700060E4000120E40004009402D
:100C6000A042094088410940404200EBD07040104A
:100C70007B30492800DC4A20AC2800DDAC20014B49
:100C800018607047A8420940164B00221A705A702B
:100C9000154B4FF44071596459601A6F186F024038
:100CA00022F440721A6759664FF48072A3F500630C
:100CB0001A6103F50073AC21196040F22321196217
:100CC0004FF40061596040F20221C3F820114FF047
:100CD000FF31D960E121996004490A6050221A600D
:100CE000704700BF88040020000E0E4000E100E0C5
:100CF000074B5B6913F0020F08D0054BD861044B1A
:100D00005B6913F4007FFAD0002070470120704720
:100D100000080E4008B5154B5B6913F0E00F03D0D7
:100D20004FF4A871114A116013F0010F12D010484E
:100D30004278531C594203F03F0301F03F0158BF72
:100D40004B4201788B4206D00849886908490A4419
:100D500090704B7008BD0748074B9847044B597873
:100D6000024A92690B449A7008BD00BF00080E4009
:100D70008804002030140800A10B080080F0004017
:100D800002E000BF81F0004142001FBF5FEA410363
:100D900092EA030F7FEA226C7FEA236C6AD04FEA63
:100DA0001262D2EB1363C1BFD218414048404140A8
:100DB000B8BF5B42192B88BF704710F0004F40F45A
:100DC000000020F07F4018BF404211F0004F41F476
:100DD000000121F07F4118BF494292EA030F3FD042
:100DE000A2F1010241FA03FC10EB0C00C3F1200355
:100DF00001FA03F100F0004302D5494260EB4000E4
:100E0000B0F5000F13D3B0F1807F06D340084FEA4E
:100E1000310102F10102FE2A51D2B1F1004F40EB43
:100E2000C25008BF20F0010040EA030070474900AB
:100E300040EB000010F4000FA2F10102EDD1B0FA76
:100E400080FCACF1080CB2EB0C0200FA0CF0AABF6B
:100E500000EBC25052421843BCBFD0401843704709
:100E600092F0000F81F4000106BF80F4000001320F
:100E7000013BB5E74FEA41037FEA226C18BF7FEAE6
:100E8000236C21D092EA030F04D092F0000F08BF28
:100E90000846704790EA010F1CBF0020704712F00F
:100EA0007F4F04D1400028BF40F00040704712F14E
:100EB00000723CBF00F50000704700F0004343F0B3
:100EC000FE4040F4000070477FEA226216BF0846E9
:100ED0007FEA23630146420206BF5FEA412390EAAC
:100EE000010F40F4800070474FF0000304E000BFA2
:100EF00010F0004348BF40425FEA000C08BF704753
:100F000043F0964301464FF000001CE050EA010216
:100F100008BF70474FF000030AE000BF50EA01022B
:100F200008BF704711F0004302D5404261EB410118
:100F30005FEA010C02BF84460146002043F0B6433D
:100F400008BFA3F18053A3F50003BCFA8CF2083A62
:100F5000A3EBC25310DB01FA02FC634400FA02FC6B
:100F6000C2F12002BCF1004F20FA02F243EB020072
:100F700008BF20F00100704702F1200201FA02FCD4
:100F8000C2F1200250EA4C0021FA02F243EB0200C7
:100F900008BF20EADC7070474FF0FF0C1CEAD0520B
:100FA0001EBF1CEAD15392EA0C0F93EA0C0F6FD0CC
:100FB0001A4480EA010C400218BF5FEA41211ED0AA
:100FC0004FF0006343EA501043EA5111A0FB013196
:100FD0000CF00040B1F5000F3EBF490041EAD3716B
:100FE0005B0040EA010062F17F02FD2A1DD8B3F1E7
:100FF000004F40EBC25008BF20F00100704790F056
:10100000000F0CF0004C08BF49024CEA502040EAA7
:1010100051207F3AC2BFD2F1FF0340EAC25070476D
:1010200040F400004FF00003013A5DDC12F1190FAB
:10103000DCBF00F000407047C2F10002410021FA1D
:1010400002F1C2F1200200FA02FC5FEA310040F135
:10105000000053EA4C0308BF20EADC70704792F0AE
:10106000000F00F0004C02BF400010F4000F013AE6
:10107000F9D040EA0C0093F0000F01F0004C02BFE1
:10108000490011F4000F013BF9D041EA0C018FE750
:101090000CEAD15392EA0C0F18BF93EA0C0F0AD056
:1010A00030F0004C18BF31F0004CD8D180EA01007C
:1010B00000F00040704790F0000F17BF90F0004F15
:1010C000084691F0000F91F0004F14D092EA0C0FF7
:1010D00001D142020FD193EA0C0F03D14B0218BF8A
:1010E000084608D180EA010000F0004040F0FE40D0
:1010F00040F40000704740F0FE4040F4400070476C
:101100004FF0FF0C1CEAD0521EBF1CEAD15392EAEA
:101110000C0F93EA0C0F69D0A2EB030280EA010CDA
:1011200049024FEA402037D04FF0805343EA111173
:1011300043EA10130CF000408B4238BF5B0042F1D1
:101140007D024FF4000C8B4224BF5B1A40EA0C0076
:10115000B3EB510F24BFA3EB510340EA5C00B3EBA8
:10116000910F24BFA3EB910340EA9C00B3EBD10F96
:1011700024BFA3EBD10340EADC001B0118BF5FEAE8
:101180001C1CE0D1FD2A3FF650AF8B4240EBC25011
:1011900008BF20F0010070470CF0004C4CEA5020D2
:1011A0007F32C2BFD2F1FF0340EAC250704740F421
:1011B00000004FF00003013A37E792F0000F00F013
:1011C000004C02BF400010F4000F013AF9D040EA91
:1011D0000C0093F0000F01F0004C02BF490011F425
:1011E000000F013BF9D041EA0C0195E70CEAD1531D
:1011F00092EA0C0F08D142027FF47DAF93EA0C0F04
:101200007FF470AF084676E793EA0C0F04D14B02E7
:101210003FF44CAF08466EE730F0004C18BF31F099
:10122000004CCAD130F000427FF45CAF31F0004393
:101230007FF43CAF5FE700BF4FEA4002B2F1FE4FE0
:101240000FD34FF09E03B3EB12620DD94FEA002388
:1012500043F0004310F0004F23FA02F018BF404261
:1012600070474FF00000704712F1610F01D1420248
:1012700005D110F0004008BF6FF0004070474FF0FC
:101280000000704770B50F4E0F4D761BB61018BF9B
:10129000002405D0013455F8043B9847A642F9D103
:1012A0000A4E0B4D00F0D6F8761BB61018BF00247E
:1012B00006D0013455F8043B9847A642F9D170BDD9
:1012C00070BD00BF601408006014080068140800B6
:1012D00060140800024B13B1024800F005B87047D3
:1012E00000000000F5120800002301461A461846C7
:1012F00000F01EB838B50A4C0A4D641BA4100AD081
:1013000004F18043013B05EB8305013C55F80439AA
:101310009847002CF9D1BDE8384000F0A5B800BFCF
:101320007814080074140800704700BF704700BFAD
:101330002DE9F8432C4D0646286898460F469146FD
:10134000FFF7F2FF294B1C68D4F84831002B3ED040
:101350005A681F2A1CDC02F1010E76B1012103EB51
:101360008204C4F88890D3F8880191400843022E83
:10137000C3F88801C4F8088123D00232C3F804E01E
:10138000286843F82270FFF7D1FF0020BDE8F883FA
:10139000174B0BB34FF4C870AFF300800346D8B1BE
:1013A0000020D4F848114FF0010E58601960024631
:1013B000C4F84831C3F88801C3F88C01002EDCD092
:1013C000CCE7D3F88C010143C3F88C11D5E704F5C1
:1013D000A673C4F84831BBE72868FFF7A7FF4FF0B2
:1013E000FF30BDE8F88300BF380400205014080027
:1013F0000000000043414E30206D657373616765E6
:10140000206172726976656420696E206E6F6E2D40
:1014100075736564206D61696C626F780A0D0000F8
:1014200025640A0D00000000286E756C6C29000010
:101430004552523A20554152542052582062756606
:101440006665722069732066756C6C0A0D00000079
:1014500010000020F8B500BFF8BC08BC9E467047DD
:10146000D512080019010800F8B500BFF8BC08BC87
:081470009E467047F5000800DC
:1014780000093D00295C4F3FCDCC4C3E01010000E6
:1014880000000000FC02002064030020CC030020C0
:101498000000000000000000000000000000000044
:1014A8000000000000000000000000000000000034
:1014B8000000000000000000000000000000000024
:1014C8000000000000000000000000000000000014
:1014D8000000000000000000000000000000000004
:1014E80000000000000000000000000000000000F4
:1014F80000000000000000000000000000000000E4
:1015080000000000000000000000000000000000D3
:1015180000000000000000000000000000000000C3
:1015280000000000000000000100000000000000B2
:101538000E33CDAB34126DE6ECDE05000B00000077
:101548000000000000000000000000000000000093
:101558000000000000000000000000000000000083
:101568000000000000000000000000000000000073
:101578000000000000000000000000000000000063
:0C18A8000000000000000000CC04002044
:040000038000000079
:00000001FF
