S013000050696E67506F6E674C61622E73726563E0
S11300000C9438000C9455000C9455000C94150273
S11300100C9455000C9455000C9455000C94550008
S11300200C9455000C9455000C9455000C945500F8
S11300300C9455000C9455000C9455000C945500E8
S11300400C9455000C9455000C9455000C945500D8
S11300500C9455000C9455000C9455000C945500C8
S11300600C9455000C9455000C9455000C945500B8
S113007011241FBECFEFD4E0DEBFCDBF12E0A0E05D
S1130080B1E0E2E3FCE002C005900D92A438B107B0
S1130090D9F722E0A4E8B2E001C01D92AC38B2075F
S11300A0E1F70E9448020C9417060C9400005D9B33
S11300B0FECF8CB908955F9BFECF8CB108958093D9
S11300C000100895883018F480550E945F00089548
S11300D0CF93882354F0C82FC295CF708F700E949D
S11300E05F0080E18C0F0E945F00CF91089580E053
S11300F00E94620080E00E946800089580930012CC
S11301000895CF93DF930E946200C0E0D0E004C062
S113011080E00E947E002196C038D105CCF3DF91A7
S1130120CF910895CF93DF93C0E0D0E004C08C2F2B
S11301300E9481002196C830D105CCF30E9477003B
S1130140DF91CF9108958EEA0E945F0081EA0E94B8
S11301505F008AED0E945F0082E10E945F0088ECEC
S11301600E945F0088EA0E945F008FE30E945F00A4
S113017085ED0E945F0080E80E945F0081E80E9494
S11301805F0080E50E945F0089ED0E945F0081E2CC
S11301900E945F0080E20E945F0082E00E945F0094
S11301A08BED0E945F0080E30E945F008DEA0E9455
S11301B05F0080E00E945F0084EA0E945F0086EA9C
S11301C00E945F008FEA0E945F00089587B3806BEE
S11301D087BB87B38F7B87BB8DB181658DB908954C
S11301E08FB9779BFECF08958FEF8FB9779BFECFA2
S11301F08FB1089588B38F7E88BB089588B38061DA
S113020088BB0895CF93C82F0E94FA0083E00E9410
S1130210F0008C2F0E94F0000E94F400C82F0E946E
S1130220FE008C2FCF910895CF93DF93D82FC62F44
S11302300E94FA0082E00E94F0008D2F0E94F000DC
S11302408C2F0E94F0000E94FE00DF91CF91089550
S1130250CF930E94FA0080EA0E94F0000E94F4000A
S1130260C82F0E94FE008C2FCF9108951F93CF9327
S1130270DF93182FD62FC42F0E94FA0085E00E9426
S1130280F000812F0E94F0008D2F0E94F0008C2F2F
S11302900E94F0000E94FE00DF91CF911F9108950B
S11302A00E94FA0080EC0E94F0000E94FE00089573
S11302B00E94500165EC8AE20E9414016FE389E216
S11302C00E94140160E08FE00E94140141E061E0AB
S11302D08BE20E94360140EC60EC80E60E9436011D
S11302E00895EF92FF920F931F93CF93DF93CDB7AF
S11302F0DEB72C970FB6F894DEBF0FBECDBFE982F0
S1130300FA820B831C832D833E834F83588769872E
S11303107A878B879C8709811A81B80176956795BE
S1130320769567957695679581E30E941401602F11
S11303306295660F607E82E30E94140160E085E3AB
S11303400E941401FC844F2D6FE085E30E94360166
S113035000E010E00DC0E3E0F0E0EC0FFD1FE00F63
S1130360F11F608186E3800F0E9414010F5F1F4F0D
S11303708F2D90E00817190774F34FEF68E080E3BE
S11303800E9436012C960FB6F894DEBF0FBECDBF87
S1130390DF91CF911F910F91FF90EF900895EF920D
S11303A0FF921F93CF93DF937C0181E60E940201A9
S11303B0C82F82E60E9402012C2F30E0322F222720
S11303C0282B35952795359527953595279535957A
S11303D0279535952795F7013183208385E60E947B
S11303E00201182F1F70193008F018E0F701138765
S11303F0C0E0D0E009C08C2F8A590E940201F701A5
S1130400EC0FFD1F82832196812F90E0C817D90736
S113041094F340E063E08CE20E943601C701DF916F
S1130420CF911F91FF90EF9008951F920F920FB6F6
S11304300F9211248F9381E0809385028F910F9006
S11304400FBE0F901F90189590BD89B988E18AB9A5
S11304508EEA80BD089585B7806885BF80B78062C5
S113046080BF08959C0191B3906191BBEBE8F0E0EB
S1130470908190649083EAE8F0E0908198609083A2
S11304803093870020938600808181608083089563
S1130490CF93DF93CDB7DEB7A4970FB6F894DEBF42
S11304A00FBECDBF8FEF8ABB86B1826086B981B3A0
S11304B011BA86B116B886B18E7F86B98BB78770AC
S11304C08BBF86B78E7F86BF8AB780628ABF8BB7A1
S11304D080628BBF78948FE190E00E94240280E0D8
S11304E090E00E9432020E942B020E94A3000E940C
S11304F0E6000E945801E6E8F2E080E091E0938390
S11305008283918380830E9492008AE290E09A839E
S1130510898387E08C8788E0E6E3F2E0DE011396C6
S113052001900D928A95E1F780918502882379F0F4
S11305300E942801982F937019F091E090938402FF
S1130540887A29F040E068EA8CE20E943601E9806A
S1130550FA800B811C812D813E814F8158856985EC
S11305607A858B859C850E9471012C85CE0103962A
S11305709F938F931F922F938A818F9389818F9357
S11305808EE392E09F938F930E9439038DE20E9441
S11305900201F82E0E942801182F80EB0E9402010C
S11305A0082F1F92FF928FE592E09F938F930E94F2
S11305B039031F920F931F921F9389E692E09F9332
S11305C08F930E9439032FEF8FEF9CE221508040DC
S11305D09040E1F700C000C00FB6F894DEBF0FBE34
S11305E0CDBF80918402882309F49ECFCE01499621
S11305F00E94CF018CE0FE017996DE011D960190E8
S11306000D928A95E1F7288DCE010F969F938F93D3
S11306101F922F938E858F938D858F938EE392E017
S11306209F938F930E943903109284028DE20E945B
S11306300201F82E0E942801182F80EB0E9402016B
S1130640082F1F92FF928FE592E09F938F930E9451
S113065039031F920F931F921F9389E692E09F9391
S11306608F930E9439030FB6F894DEBF0FBECDBF3F
S11306705BCFA0E0B0E0EFE3F3E00C94F005AE0153
S11306804B5F5F4FFA0161917191AF0180918802D4
S1130690909189020E944F03E2E00C940C06ABE0B7
S11306A0B0E0E5E5F3E00C94E0056C017B018A0120
S11306B0FC0117821682838181FFCCC1CE01019691
S11306C03C01F6019381F70193FD859193FF81919C
S11306D07F01882309F4BAC1853239F493FD8591E9
S11306E093FF81917F01853229F4B60190E00E9445
S11306F04605E7CF912C212C312CFFE1F315D8F0DE
S11307008B3279F038F4803279F08332A1F4232DDE
S113071020611DC08D3261F0803369F4232D216086
S113072016C0832D8260382EE32DE4603E2E2AC04D
S1130730F32DF8601DC037FC2DC020ED280F2A30A2
S113074040F08E32B9F436FC81C1232D2064322E60
S113075019C036FE06C08AE0989E200D1124922E00
S113076011C0EAE02E9E200D1124222EF32DF062FA
S11307703F2E08C08C3621F4832D8068382E02C0A9
S1130780883641F4F70193FD859193FF81917F01B0
S11307908111B3CF982F9F7D9554933028F40C5F2B
S11307A01F4F9FE399830DC0833631F0833771F077
S11307B0833509F059C021C0F801808189830E5F17
S11307C01F4F88248394912C530113C02801F2E015
S11307D04F0E511CF801A080B18036FE03C0692D74
S11307E070E002C06FEF7FEFC5010E943B054C0132
S11307F08201F32DFF773F2E16C0280122E0420E1E
S1130800511CF801A080B18036FE03C0692D70E050
S113081002C06FEF7FEFC5010E9430054C01F32D3C
S1130820F0683F2E820133FC1BC0822D90E08816B5
S11308309906B0F4B60180E290E00E9446052A943D
S1130840F4CFF50137FC859137FE81915F01B60144
S113085090E00E94460521102A9421E0821A910812
S11308608114910471F7E8C0843611F0893641F59A
S1130870F80137FE07C060817181828193810C5F2A
S11308801F4F08C060817181072E000C880B990BE3
S11308900E5F1F4FF32DFF763F2E97FF09C09095F3
S11308A08095709561957F4F8F4F9F4FF0683F2ED5
S11308B02AE030E0A3010E948205882E861845C0F4
S11308C0853731F4232D2F7EB22E2AE030E025C067
S11308D0932D997FB92E8F36C1F018F4883579F0AD
S11308E0B5C0803719F0883721F0B0C0E92FE06136
S11308F0BE2EB4FE0DC0FB2DF460BF2E09C034FE25
S11309000AC0292F2660B22E06C028E030E005C0B8
S113091020E130E002C020E132E0F801B7FE07C078
S113092060817181828193810C5F1F4F06C0608159
S1130930718180E090E00E5F1F4FA3010E94820549
S1130940882E8618FB2DFF773F2E36FE0DC0232DF3
S11309502E7FA22E891458F434FE0BC032FC09C039
S1130960832D8E7EA82E05C0B82CA32C03C0B82CD2
S113097001C0B92CA4FE0FC0FE01E80DF11D808159
S1130980803321F49A2D997EA92E09C0A2FE06C0B7
S1130990B394B39404C08A2D867809F0B394A3FC6D
S11309A011C0A0FE06C0B21488F4280C922C9B1827
S11309B00EC0B21460F4B60180E290E00E944605D5
S11309C0B394F7CFB21418F42B1802C0982C212C2E
S11309D0A4FE10C0B60180E390E00E944605A2FE8A
S11309E017C0A1FC03C088E790E002C088E590E04E
S11309F0B6010CC08A2D867859F0A1FE02C08BE2A4
S1130A0001C080E2A7FC8DE2B60190E00E94460599
S1130A10891438F4B60180E390E00E9446059A9464
S1130A20F7CF8A94F301E80DF11D8081B60190E0BF
S1130A300E9446058110F5CF222009F442CEB6016A
S1130A4080E290E00E9446052A94F6CFF601868162
S1130A50978102C08FEF9FEF2B96E2E10C94FC0587
S1130A60FC010590615070400110D8F78095909575
S1130A708E0F9F1F0895FC0161507040019001107A
S1130A80D8F7809590958E0F9F1F08950F931F930D
S1130A90CF93DF93FB01238121FD03C08FEF9FEFF1
S1130AA02CC022FF16C0468157812481358142170C
S1130AB0530744F4A081B1819D012F5F3F4F3183DF
S1130AC020838C93268137812F5F3F4F3783268382
S1130AD014C08B01EC01FB010084F185E02D099524
S1130AE0892BE1F6D80116968D919C911797019662
S1130AF017969C938E931697CE01DF91CF911F91F9
S1130B000F910895FA01AA27283051F1203181F17B
S1130B10E8946F936E7F6E5F7F4F8F4F9F4FAF4F01
S1130B20B1E03ED0B4E03CD0670F781F891F9A1F14
S1130B30A11D680F791F8A1F911DA11D6A0F711DC8
S1130B40811D911DA11D20D009F468943F912AE0D4
S1130B50269F11243019305D3193DEF6CF010895BC
S1130B60462F4770405D4193B3E00FD0C9F7F6CFED
S1130B70462F4F70405D4A3318F0495D31FD4052B5
S1130B80419302D0A9F7EACFB4E0A695979587954B
S1130B9077956795BA95C9F700976105710508952A
S1130BA09B01AC010A2E06945795479537952795D6
S1130BB0BA95C9F7620F731F841F951FA01D08956E
S1130BC02F923F924F925F926F927F928F929F9259
S1130BD0AF92BF92CF92DF92EF92FF920F931F9347
S1130BE0CF93DF93CDB7DEB7CA1BDB0B0FB6F894F8
S1130BF0DEBF0FBECDBF09942A88398848885F8438
S1130C006E847D848C849B84AA84B984C884DF80A8
S1130C10EE80FD800C811B81AA81B981CE0FD11D8C
S1130C200FB6F894DEBF0FBECDBFED010895F89462
S1050C30FFCFF0
S1130C32000000030000000057005B0000004D614B
S1130C42696E206D656E75005072696E74207465EC
S1130C527374004F7074696F6E73004F7074696FB0
S1130C626E200052657475726E004E6F20706F7242
S1130C72742076616C756573206368616E67656460
S1130C82005374617274696E67205352414D20742B
S1130C926573742E2E2E0057726974652070686114
S1130CA27365206572726F723A206578745F72613F
S1130CB26D5B2534645D203D202530325820287335
S1130CC2686F756C642062652025303258290A00E9
S1130CD252657472696576616C207068617365200F
S1130CE26572726F723A206578745F72616D5B250A
S1130CF234645D203D2025303258202873686F7596
S1130D026C642062652025303258290A005352410E
S1130D124D207465737420636F6D706C65746564C3
S1130D222077697468200A253464206572726F72B0
S1130D327320696E207772697465207068617365C7
S1130D4220616E64200A253464206572726F7273A6
S1130D5220696E2072657472696576616C207068B0
S1130D626173650A0A0054455354313233004944CD
S1130D723A2025642C206C656E6774683A202564D9
S1130D822C206D6573736167653A2025730A0045EB
S1130D92464C473A2025580A005374617475733AD5
S1130DA22025582C2052585F7374617475733A204D
S1070DB225580A00B2
S9030000FC
