S013000050696E67506F6E674C61622E73726563E0
S11300000C9438000C9455000C9455000C94550035
S11300100C9455000C9455000C9455000C94550008
S11300200C9455000C9455000C9455000C945500F8
S11300300C9455000C9455000C9455000C945500E8
S11300400C9455000C9455000C9455000C945500D8
S11300500C9455000C9455000C9455000C945500C8
S11300600C9455000C9455000C9455000C945500B8
S113007011241FBECFEFD4E0DEBFCDBF12E0A0E05D
S1130080B1E0EAE3FCE002C005900D92A633B107AB
S1130090D9F722E0A6E3B2E001C01D92A434B2076E
S11300A0E1F70E947E010C941B060C9400005D9BFA
S11300B0FECF8CB908955F9BFECF8CB10895E0E02C
S11300C0F4E180E1808382E1808381E1808383E0C5
S11300D080838CEC94E00197F1F700C000008081EC
S11300E080933D02808180933C02808180933B0217
S11300F0808180933A020895CF93DF93109239025E
S1130100109238021092370210923602C0E0D0E00A
S113011038C00E945F0020913D0284E6289F900130
S113012011243253C901992314F481589F4F9C011F
S1130130220F232F221F330B40913C0284E6489F59
S1130140A00111245253CA01992314F481589F4FDA
S1130150880F892F881F990B4091380250913902DA
S1130160240F351F30933902209338022091360230
S113017030913702820F931F909337028093360297
S11301802196C233D1052CF2809138029091390224
S113019022E330E0B9010E94260270933902609391
S11301A038028091360290913702B9010E942602EA
S11301B07093370260933602DF91CF91089590BD1A
S11301C089B988E18AB98EEA80BD0895EF92FF92D9
S11301D00F931F93CF93DF9389E291E00E94C002B3
S11301E00E949A027C010E949F02C0E0D0E000E0DD
S11301F010E020C00E949A02FE01F85E80832081F4
S11302002817B9F099279F938F931F922F93DF9309
S1130210CF938FE391E09F938F930E94AA020F5F85
S11302201F4F8DB79EB708960FB6F8949EBF0FBEAA
S11302308DBF2196C11598E0D907E0F2C7010E944D
S11302409F02C0E0D0E0E12CF12C20C00E949A0271
S1130250FE01F85E20812817C1F099279F938F93A0
S11302601F922F93DF93CF9388E791E09F938F930F
S11302700E94AA028FEFE81AF80A8DB79EB7089673
S11302800FB6F8949EBF0FBE8DBF2196C11598E09E
S1130290D907E0F2FF92EF921F930F9385EB91E061
S11302A09F938F930E94AA020F900F900F900F902C
S11302B00F900F90DF91CF911F910F91FF90EF90CE
S11302C0089585B7806885BF80B7806280BF089530
S11302D09C0191B3906191BBEBE8F0E09081906454
S11302E09083EAE8F0E090819860908330938700EF
S11302F02093860080818160808308958FEF8ABB7C
S113030086B1826086B981B311BA8FE190E00E9410
S1130310DF0080E090E00E9468010E946101EEE34A
S1130320F2E084E091E093838283918380830E944E
S11303305B0090B393FBDD27D0F990B392FBCC27FD
S1130340C0F9833719F40E94E600F1CF813609F031
S113035073C00E945F0020913D0230E020583109B3
S113036044E6429FC001439F900D1124992314F445
S113037081589F4F880F892F881F990B209138022D
S113038030913902821B930B40913C0250E040585B
S1130390510964E6649F9001659F300D1124332355
S11303A014F421583F4F220F232F221F330B409167
S11303B0360250913702241B350B8C394FEF9407CA
S11303C024F08536910524F405C08CE99FEF02C022
S11303D084E690E02C394FEF340724F025363105BC
S11303E024F405C02CE93FEF02C024E630E050912C
S11303F03A0240913B021F925F931F924F933F93A7
S11304002F939F938F938EE092E09F938F930E94FC
S1130410AA021F92CF931F92DF938EE192E09F93E3
S11304208F930E94AA028DB79EB740960FB6F89498
S11304309EBF0FBE8DBF7BCF833609F078CF8091EE
S11304403D0280913C020E947C0071CF97FB072EF5
S113045016F4009407D077FD09D00E943A0207FCF5
S113046005D03EF4909581959F4F089570956195C0
S11304707F4F0895AA1BBB1B51E107C0AA1FBB1FD6
S1130480A617B70710F0A61BB70B881F991F5A951C
S1130490A9F780959095BC01CD0108958F929F9204
S11304A0AF92BF92CF92DF92EF92FF92CF93DF93FE
S11304B0EC01688179818A819B81611571058105CF
S11304C0910521F464E279ED8BE597E02DE133EFBA
S11304D041E050E00E94810549015A019B01AC01B1
S11304E0A7EAB1E40E94A0056B017C01ACEEB4EF75
S11304F0A50194010E94AE05DC01CB018C0D9D1D6C
S1130500AE1DBF1DB7FF03C00197A109B048888382
S11305109983AA83BB839F77DF91CF91FF90EF905C
S1130520DF90CF90BF90AF909F908F9008950E94DE
S11305304E02089580E091E00E944E020895A0E0EA
S1130540B0E08093000190930101A0930201B09365
S113055003010895A0E0B0E0E0EBF2E00C94C305E1
S1130560AE014B5F5F4FFA0161917191AF018091D0
S11305704002909141020E94F002E2E00C94DF05F7
S11305800F931F93CF93DF93E0914002F0914102C8
S1130590238121FF1BC08C01D0E0C0E0F8018191D0
S11305A08F016091400270914102DB011896ED9138
S11305B0FC911997882331F00995892B79F3DFEFA2
S11305C0CFEFECCF8AE00995892B19F08FEF9FEFDD
S11305D002C08D2F9C2FDF91CF911F910F91089511
S11305E0ABE0B0E0E6EFF2E00C94B3056C017B0104
S11305F08A01FC0117821682838181FFCCC1CE015E
S113060001963C01F6019381F70193FD859193FFD7
S113061081917F01882309F4BAC1853239F493FDAD
S1130620859193FF81917F01853229F4B60190E091
S11306300E94E704E7CF912C212C312CFFE1F31524
S1130640D8F08B3279F038F4803279F08332A1F427
S1130650232D20611DC08D3261F0803369F4232D78
S1130660216016C0832D8260382EE32DE4603E2E77
S11306702AC0F32DF8601DC037FC2DC020ED280FD3
S11306802A3040F08E32B9F436FC81C1232D206427
S1130690322E19C036FE06C08AE0989E200D112421
S11306A0922E11C0EAE02E9E200D1124222EF32D4D
S11306B0F0623F2E08C08C3621F4832D8068382EDA
S11306C002C0883641F4F70193FD859193FF81912F
S11306D07F018111B3CF982F9F7D9554933028F4D7
S11306E00C5F1F4F9FE399830DC0833631F083372E
S11306F071F0833509F059C021C0F80180818983E4
S11307000E5F1F4F88248394912C530113C028013A
S1130710F2E04F0E511CF801A080B18036FE03C0F8
S1130720692D70E002C06FEF7FEFC5010E94DC0409
S11307304C018201F32DFF773F2E16C0280122E0E1
S1130740420E511CF801A080B18036FE03C0692D11
S113075070E002C06FEF7FEFC5010E94D1044C012D
S1130760F32DF0683F2E820133FC1BC0822D90E0F4
S113077088169906B0F4B60180E290E00E94E7047E
S11307802A94F4CFF50137FC859137FE81915F01FE
S1130790B60190E00E94E70421102A9421E0821A15
S11307A091088114910471F7E8C0843611F08936F8
S11307B041F5F80137FE07C0608171818281938120
S11307C00C5F1F4F08C060817181072E000C880BDD
S11307D0990B0E5F1F4FF32DFF763F2E97FF09C035
S11307E090958095709561957F4F8F4F9F4FF068DE
S11307F03F2E2AE030E0A3010E942305882E8618AC
S113080045C0853731F4232D2F7EB22E2AE030E007
S113081025C0932D997FB92E8F36C1F018F48835F1
S113082079F0B5C0803719F0883721F0B0C0E92FCE
S1130830E061BE2EB4FE0DC0FB2DF460BF2E09C0D6
S113084034FE0AC0292F2660B22E06C028E030E00C
S113085005C020E130E002C020E132E0F801B7FE3B
S113086007C060817181828193810C5F1F4F06C034
S11308706081718180E090E00E5F1F4FA3010E94B0
S11308802305882E8618FB2DFF773F2E36FE0DC0DC
S1130890232D2E7FA22E891458F434FE0BC032FC73
S11308A009C0832D8E7EA82E05C0B82CA32C03C0AE
S11308B0B82C01C0B92CA4FE0FC0FE01E80DF11D37
S11308C08081803321F49A2D997EA92E09C0A2FE3D
S11308D006C0B394B39404C08A2D867809F0B39407
S11308E0A3FC11C0A0FE06C0B21488F4280C922CFC
S11308F09B180EC0B21460F4B60180E290E00E942E
S1130900E704B394F7CFB21418F42B1802C0982C50
S1130910212CA4FE10C0B60180E390E00E94E704FD
S1130920A2FE17C0A1FC03C088E790E002C088E5DE
S113093090E0B6010CC08A2D867859F0A1FE02C061
S11309408BE201C080E2A7FC8DE2B60190E00E9438
S1130950E704891438F4B60180E390E00E94E704C8
S11309609A94F7CF8A94F301E80DF11D8081B601C2
S113097090E00E94E7048110F5CF222009F442CED2
S1130980B60180E290E00E94E7042A94F6CFF601D3
S11309908681978102C08FEF9FEF2B96E2E10C9442
S11309A0CF05FC010590615070400110D8F7809587
S11309B090958E0F9F1F0895FC0161507040019027
S11309C00110D8F7809590958E0F9F1F08950F936F
S11309D01F93CF93DF93FB01238121FD03C08FEF8E
S11309E09FEF2CC022FF16C0468157812481358198
S11309F04217530744F4A081B1819D012F5F3F4FFB
S1130A00318320838C93268137812F5F3F4F378337
S1130A10268314C08B01EC01FB010084F185E02DD9
S1130A200995892BE1F6D80116968D919C9117971B
S1130A30019617969C938E931697CE01DF91CF91D2
S1130A401F910F910895FA01AA27283051F12031FE
S1130A5081F1E8946F936E7F6E5F7F4F8F4F9F4F4E
S1130A60AF4FB1E03ED0B4E03CD0670F781F891F90
S1130A709A1FA11D680F791F8A1F911DA11D6A0F5E
S1130A80711D811D911DA11D20D009F468943F9111
S1130A902AE0269F11243019305D3193DEF6CF0110
S1130AA00895462F4770405D4193B3E00FD0C9F7D6
S1130AB0F6CF462F4F70405D4A3318F0495D31FD43
S1130AC04052419302D0A9F7EACFB4E0A695979596
S1130AD0879577956795BA95C9F70097610571056C
S1130AE008959B01AC010A2E0694579547953795B6
S1130AF02795BA95C9F7620F731F841F951FA01D10
S1130B000895052E97FB1EF400940E94980557FD46
S1130B1007D00E94EA0507FC03D04EF40C94980514
S1130B2050954095309521953F4F4F4F5F4F089515
S1130B3090958095709561957F4F8F4F9F4F089545
S1130B400E940C06A59F900DB49F900DA49F800D4C
S1130B50911D11240895B7FF0C94A0050E94A005CF
S1130B60821B930B08952F923F924F925F926F9244
S1130B707F928F929F92AF92BF92CF92DF92EF9229
S1130B80FF920F931F93CF93DF93CDB7DEB7CA1BAA
S1130B90DB0B0FB6F894DEBF0FBECDBF09942A88D5
S1130BA0398848885F846E847D848C849B84AA847D
S1130BB0B984C884DF80EE80FD800C811B81AA810A
S1130BC0B981CE0FD11D0FB6F894DEBF0FBECDBFD5
S1130BD0ED010895A1E21A2EAA1BBB1BFD010DC055
S1130BE0AA1FBB1FEE1FFF1FA217B307E407F507D9
S1130BF020F0A21BB30BE40BF50B661F771F881FB5
S1130C00991F1A9469F760957095809590959B014A
S1130C10AC01BD01CF010895A29FB001B39FC001F3
S1130C20A39F700D811D1124911DB29F700D811D14
S10D0C301124911D0895F894FFCFDC
S1130C3A01000000000000030000000057005B00F0
S1130C4A00004E6F20706F72742076616C75657344
S1130C5A206368616E676564005374617274696EB7
S1130C6A67205352414D20746573742E2E2E0057FB
S1130C7A72697465207068617365206572726F7237
S1130C8A3A206578745F72616D5B2534645D203D3A
S1130C9A2025303258202873686F756C6420626589
S1130CAA2025303258290A005265747269657661C2
S1130CBA6C207068617365206572726F723A206580
S1130CCA78745F72616D5B2534645D203D20253044
S1130CDA3258202873686F756C6420626520253049
S1130CEA3258290A005352414D20746573742063A3
S1130CFA6F6D706C657465642077697468200A2561
S1130D0A3464206572726F727320696E2077726917
S1130D1A746520706861736520616E64200A2534E5
S1130D2A64206572726F727320696E2072657472C0
S1130D3A696576616C2070686173650A0A002564C6
S1130D4A2C2025642C2025642C2025640A004C655B
S1130D5A66743A2025752020202020526967687419
S1090D6A3A2025750A0081
S9030000FC
