S013000050696E67506F6E674C61622E73726563E0
S11300000C94B4010C94D1010C94D1010C94D10141
S11300100C94D1010C94D1010C94D1010C94D10114
S11300200C94D1010C94D1010C94D1010C94D10104
S11300300C94D1010C94D1010C94D1010C94D101F4
S11300400C94D1010C94D1010C94D1010C94D101E4
S11300500C94D1010C94D1010C94D1010C94D101D4
S11300600C94D1010C94D1010C94D1010C94D101C4
S1130070000000000000000000065F5F06000000B2
S11300800007070007070000147F7F147F7F140018
S1130090242E6B6B3A120000466630180C66620020
S11300A0307A4F5D377A48000407030000000000EF
S11300B0001C3E63410000000041633E1C00000040
S11300C0082A3E1C1C3E2A0808083E3E0808000078
S11300D000A0E0600000000008080808080800000C
S11300E000006060000000006030180C060301008E
S11300F03E7F594D7F3E000042427F7F40400000DA
S1130100627359496F660000226349497F360000D3
S1130110181C16137F7F1000276745457D390000A2
S11301203C7E4B4979300000036371190F070000CE
S1130130367F49497F360000064F49693F1E00005B
S113014000006C6C0000000000A0EC6C00000000DB
S1130150081C366341000000141414141414000025
S1130160004163361C080000020351590F060000C9
S11301703E7F415D5D1F1E007C7E13137E7C00006C
S1130180417F7F49497F36001C3E63414163220021
S1130190417F7F41637F1C00417F7F495D41630054
S11301A0417F7F491D0103001C3E6341517372006E
S11301B07F7F08087F7F000000417F7F41000000AF
S11301C0307040417F3F0100417F7F081C7763000E
S11301D0417F7F41406070007F7F060C067F7F0077
S11301E07F7F060C187F7F001C3E6341633E1C002A
S11301F0417F7F49090F06001E3F21717F5E000089
S1130200417F7F19396F460026674D597B320000C4
S113021003417F7F410300007F7F40407F7F0000D8
S11302201F3F60603F1F00007F7F3018307F7F00DA
S113023063771C081C776300074F78784F0700002A
S11302406773594D47637100007F7F41410000008F
S11302500103060C183060000041417F7F0000005C
S1130260080C0603060C0800808080808080808053
S11302700000030704000000207454543C7840003C
S1130280413F7F44447C3800387C44446C2800005F
S1130290307848493F7F4000387C54545C18000053
S11302A0487E7F490302000098BCA4A4F87C0400A3
S11302B0417F7F08047C780000447D7D400000007D
S11302C040C484FD7D000000417F7F10386C4400F1
S11302D000417F7F400000007C7C0C180C7C78007F
S11302E07C7C04047C780000387C44447C38000026
S11302F084FCF8A4243C1800183C24A4F8FC8400D2
S1130300447C78441C180000485C54547424000055
S113031000043E7F442400003C7C40403C7C400080
S11303201C3C60603C1C00003C7C6030607C3C00F9
S1130330446C3810386C44009CBCA0A0FC7C0000C9
S11303404C64745C4C64000008083E774141000032
S113035000000077770000004141773E0808000064
S1130360020301030203010011241FBECFEFD4E0F6
S1130370DEBFCDBF12E0A0E0B1E0EAE8F6E002C0E3
S113038005900D92A233B107D9F722E0A2E3B2E0BF
S113039001C01D92A833B207E1F70E94E7020C9452
S11303A043030C9400005D9BFECF8CB908955F9BC2
S11303B0FECF8CB1089597B117B8809300100895BB
S11303C0883018F480550E94DB010895CF93882368
S11303D054F0C82FC295CF708F700E94DB0180E16A
S11303E08C0F0E94DB01CF910895CF93C62F0E94FA
S11303F0E0018C2F0E94E601CF91089580E00E94D5
S1130400E00180E00E94E601089597B1946097B9F5
S11304108093001208951F93CF93DF93182FC0E0A9
S1130420D0E011C0E12FF0E0B097EE0FFF1FEE0F08
S1130430FF1FEE0FFF1FEC0FFD1FE059FF4F8491CC
S11304400E9405022196C830D10564F3DF91CF9153
S11304501F910895EF92FF920F931F93CF93DF9311
S11304607C018B01C0E0D0E007C0F701EC0FFD1F59
S113047080810E940B022196C017D107B4F3DF914B
S1130480CF911F910F91FF90EF900895CF93DF9339
S11304900E94E001C0E0D0E004C080E00E940502B8
S11304A02196C038D105CCF3DF91CF910895CF9335
S11304B0DF93C0E0D0E004C08C2F0E944602219656
S11304C0C830D105CCF30E94FE01DF91CF9108958D
S11304D08EEA0E94DB0181EA0E94DB018AED0E9420
S11304E0DB0182E10E94DB0188EC0E94DB0188EAE7
S11304F00E94DB018FE30E94DB0185ED0E94DB019A
S113050080E80E94DB0181E80E94DB0180E50E9413
S1130510DB0189ED0E94DB0181E20E94DB0180E2C4
S11305200E94DB0182E00E94DB018BED0E94DB0173
S113053080E30E94DB018DEA0E94DB0180E00E94DF
S1130540DB0184EA0E94DB0186EA0E94DB018FEA78
S11305500E94DB010895CF930E945702C0E00FC0B0
S11305606AE08C2F0E94F50167E070E08BE291E075
S11305700E942A0281E38C0F0E940B02CF5FC830D5
S113058078F3CF91089590BD89B988E18AB98EEA4C
S113059080BD089585B7806885BF80B7806280BFBD
S11305A008959C0191B3906191BBEBE8F0E09081D8
S11305B090649083EAE8F0E09081986090833093AF
S11305C087002093860080818160808308958FEF67
S11305D08ABB86B1826086B981B311BA86B1846060
S11305E086B986B116B88FE190E00E94C30280E01C
S11305F090E00E94D1020E94CA020E946802E2E3D3
S1130600F2E080E091E0938382839183808386EAA1
S11306100E94DB010E9457020E94AB028FE292E02B
S11306200E941303FBCF0F931F93CF93DF93E091AB
S11306303402F0913502238121FF1BC08C01D0E0EC
S1130640C0E0F80181918F0160913402709135020C
S1130650DB011896ED91FC911997882331F00995E7
S1130660892B79F3DFEFCFEFECCF8AE00995892B63
S113067019F08FEF9FEF02C08D2F9C2FDF91CF9148
S10D06801F910F910895F894FFCF25
S113068A0000000300000000D301D70100004D61FF
S113069A696E206D656E75005072696E742074659A
S11306AA7374004F7074696F6E73004F7074696F5E
S11306BA6E20004E6F20706F72742076616C7565BF
S11306CA73206368616E6765640053746172746948
S11306DA6E67205352414D20746573742E2E2E007A
S11306EA5772697465207068617365206572726FE8
S11306FA723A206578745F72616D5B2534645D209B
S113070A3D2025303258202873686F756C64206246
S113071A652025303258290A005265747269657653
S113072A616C207068617365206572726F723A2019
S113073A6578745F72616D5B2534645D203D2025A4
S113074A303258202873686F756C642062652025DE
S113075A303258290A005352414D2074657374206B
S113076A636F6D706C657465642077697468200AB8
S113077A253464206572726F727320696E207772F1
S113078A69746520706861736520616E64200A2546
S113079A3464206572726F727320696E2072657494
S11307AA72696576616C2070686173650A0A006112
S10507BA000039
S9030000FC
