S013000050696E67506F6E674C61622E73726563E0
S11300000C94B4010C94D1010C94D1010C94F00320
S11300100C94D1010C94D1010C94D1010C94D10114
S11300200C94D1010C94D1010C94D1010C94D10104
S11300300C94D1010C94D1010C94D1010C94D101F4
S11300400C94D1010C94D1010C94D1010C94D101E4
S11300500C94D1010C94D1010C94D1010C94D101D4
S11300600C94D1010C94D1010C94D1010C94D101C4
S1130070000000000000000000065F5F06000000B2
S11300800007070007070000147F7F147F7F140018
S1130090242E6B6B3A120000466630180C66620020
S11300A0307A4F5D377A48000407030000000000EF
S11300B0001C3E63410000000041633E1C00000040
S11300C0082A3E1C1C3E2A0808083E3E0808000078
S11300D000A0E0600000000008080808080800000C
S11300E000006060000000006030180C060301008E
S11300F03E7F594D7F3E000042427F7F40400000DA
S1130100627359496F660000226349497F360000D3
S1130110181C16137F7F1000276745457D390000A2
S11301203C7E4B4979300000036371190F070000CE
S1130130367F49497F360000064F49693F1E00005B
S113014000006C6C0000000000A0EC6C00000000DB
S1130150081C366341000000141414141414000025
S1130160004163361C080000020351590F060000C9
S11301703E7F415D5D1F1E007C7E13137E7C00006C
S1130180417F7F49497F36001C3E63414163220021
S1130190417F7F41637F1C00417F7F495D41630054
S11301A0417F7F491D0103001C3E6341517372006E
S11301B07F7F08087F7F000000417F7F41000000AF
S11301C0307040417F3F0100417F7F081C7763000E
S11301D0417F7F41406070007F7F060C067F7F0077
S11301E07F7F060C187F7F001C3E6341633E1C002A
S11301F0417F7F49090F06001E3F21717F5E000089
S1130200417F7F19396F460026674D597B320000C4
S113021003417F7F410300007F7F40407F7F0000D8
S11302201F3F60603F1F00007F7F3018307F7F00DA
S113023063771C081C776300074F78784F0700002A
S11302406773594D47637100007F7F41410000008F
S11302500103060C183060000041417F7F0000005C
S1130260080C0603060C0800808080808080808053
S11302700000030704000000207454543C7840003C
S1130280413F7F44447C3800387C44446C2800005F
S1130290307848493F7F4000387C54545C18000053
S11302A0487E7F490302000098BCA4A4F87C0400A3
S11302B0417F7F08047C780000447D7D400000007D
S11302C040C484FD7D000000417F7F10386C4400F1
S11302D000417F7F400000007C7C0C180C7C78007F
S11302E07C7C04047C780000387C44447C38000026
S11302F084FCF8A4243C1800183C24A4F8FC8400D2
S1130300447C78441C180000485C54547424000055
S113031000043E7F442400003C7C40403C7C400080
S11303201C3C60603C1C00003C7C6030607C3C00F9
S1130330446C3810386C44009CBCA0A0FC7C0000C9
S11303404C64745C4C64000008083E774141000032
S113035000000077770000004141773E0808000064
S1130360020301030203010011241FBECFEFD4E0F6
S1130370DEBFCDBF12E0A0E0B1E0EEE2F4E102C0E6
S113038005900D92AA3CB107D9F722E0AAECB2E09D
S113039001C01D92AA3DB207E1F70E94B0040C947B
S11303A0150A0C9400005D9BFECF8CB908955F9BE9
S11303B0FECF8CB10895809300100895883018F40E
S11303C080550E94DB010895CF93882354F0C82FF1
S11303D0C295CF708F700E94DB0180E18C0F0E9468
S11303E0DB01CF910895CF93C62F0E94DE018C2F9D
S11303F00E94E401CF91089580E00E94DE0180E034
S11304000E94E40108958093001208950E94F3016C
S113041080E00E94030288E10E94030288E10E94B6
S1130420030288E10E9403028EE70E9403028CE328
S11304300E94030288E10E94030280E00E940302FA
S113044008951F93CF93DF93182FC0E0D0E011C01D
S1130450E12FF0E0B097EE0FFF1FEE0FFF1FEE0F3E
S1130460FF1FEC0FFD1FE059FF4F84910E94030210
S11304702196C830D10564F3DF91CF911F9108957F
S1130480EF92FF920F931F93CF93DF937C018B0125
S1130490C0E0D0E007C0F701EC0FFD1F80810E948F
S11304A021022196C017D107B4F3DF91CF911F9198
S11304B00F91FF90EF900895CF93DF930E94DE0198
S11304C0C0E0D0E004C080E00E9403022196C0385E
S11304D0D105CCF3DF91CF910895CF93DF93C0E0A2
S11304E0D0E004C08C2F0E945C022196C830D10554
S11304F0CCF30E94FC01DF91CF9108958EEA0E9413
S1130500DB0181EA0E94DB018AED0E94DB0182E1CA
S11305100E94DB0188EC0E94DB0188EA0E94DB0177
S11305208FE30E94DB0185ED0E94DB0180E80E94DD
S1130530DB0181E80E94DB0180E50E94DB0189ED9B
S11305400E94DB0181E20E94DB0180E20E94DB0168
S113055082E00E94DB018BED0E94DB0180E30E94BC
S1130560DB018DEA0E94DB0180E00E94DB0184EA6A
S11305700E94DB0186EA0E94DB018FEA0E94DB0114
S1130580089587B3806B87BB87B38F7B87BB8DB19F
S113059081658DB908958FB9779BFECF08958FEF4C
S11305A08FB9779BFECF8FB1089588B38F7E88BBB8
S11305B0089588B3806188BB0895CF93C82F0E94A3
S11305C0D50283E00E94CB028C2F0E94CB020E94B2
S11305D0CF02C82F0E94D9028C2FCF910895CF93B8
S11305E0DF93D82FC62F0E94D50282E00E94CB024F
S11305F08D2F0E94CB028C2F0E94CB020E94D90225
S1130600DF91CF910895CF930E94D50280EA0E9492
S1130610CB020E94CF02C82F0E94D9028C2FCF9107
S113062008951F93CF93DF93182FD62FC42F0E94C2
S1130630D50285E00E94CB02812F0E94CB028D2F30
S11306400E94CB028C2F0E94CB020E94D902DF9120
S1130650CF911F9108950E94D50280EC0E94CB0295
S11306600E94D90208950E942B0365EC8AE20E943D
S1130670EF026FE389E20E94EF0260E08FE00E94E4
S1130680EF0241E061E08BE20E94110340EC60EC78
S113069080E60E9411030895EF92FF920F931F9337
S11306A0CF93DF93CDB7DEB72C970FB6F894DEBFA8
S11306B00FBECDBFE982FA820B831C832D833E8358
S11306C04F83588769877A878B879C8709811A812A
S11306D0B80176956795769567957695679581E3E4
S11306E00E94EF02602F6295660F607E82E30E9493
S11306F0EF0260E085E30E94EF02FC844F2D6FE07F
S113070085E30E94110300E010E00DC0E3E0F0E097
S1130710EC0FFD1FE00FF11F608186E3800F0E9444
S1130720EF020F5F1F4F8F2D90E00817190774F326
S11307304FEF68E080E30E9411032C960FB6F89403
S1130740DEBF0FBECDBFDF91CF911F910F91FF9000
S1130750EF900895EF92FF921F93CF93DF937C0164
S113076081E60E94DD02C82F82E60E94DD022C2F62
S113077030E0322F2227282B35952795359527955C
S1130780359527953595279535952795F701318327
S1130790208385E60E94DD02182F1F70193008F0AF
S11307A018E0F7011387C0E0D0E009C08C2F8A5904
S11307B00E94DD02F701EC0FFD1F82832196812F39
S11307C090E0C817D90794F340E063E08CE20E94FC
S11307D01103C701DF91CF911F91FF90EF9008950E
S11307E01F920F920FB60F9211248F9381E0809382
S11307F0CB028F910F900FBE0F901F901895CF933F
S1130800DF930E946D026AE080E00E94F30169E0D8
S113081070E08EE091E00E9440026AE081E00E9474
S1130820F301C0E0D0E004C081E00E9403022196FD
S1130830C834D105CCF36AE082E00E94F3016AE097
S113084070E088E191E00E9440026AE083E00E9447
S1130850F30167E070E083E291E00E944002DF91DF
S1130860CF910895CF93DF930E946D026AE080E0F8
S11308700E94F30167E070E083E291E00E9440028D
S11308806AE081E00E94F301C0E0D0E004C081E0AE
S11308900E9403022196C834D105CCF3C0E010C0F5
S11308A06AE082E08C0F0E94F30167E070E08BE263
S11308B091E00E94400281E38C0F0E942102CF5FED
S11308C0C43070F36AE086E00E94F30166E070E0F1
S11308D083E391E00E944002DF91CF910895E0E02C
S11308E0F4E180E1808382E1808381E1808383E09D
S11308F080838CEC94E00197F1F700C000008081C4
S11309008093D30280818093D20280818093D1022C
S113091080818093D002089590BD89B988E18AB915
S11309208EEA80BD089585B7806885BF80B78062F0
S113093080BF08959C0191B3906191BBEBE8F0E016
S1130940908190649083EAE8F0E0908198609083CD
S1130950309387002093860080818160808308958E
S1130960CF93DF93CDB7DEB7A5970FB6F894DEBF6C
S11309700FBECDBF8FEF8ABB86B1826086B981B3CB
S113098011BA86B116B886B18E7F86B98BB78770D7
S11309908BBF86B78E7F86BF8AB780628ABF8BB7CC
S11309A080628BBF78948FE190E00E948C0480E099
S11309B090E00E949A040E9493040E947E020E9486
S11309C0C1020E943303E4EDF2E080E091E09383FE
S11309D08283918380830E946D028AE290E09A83ED
S11309E0898387E08C8788E0E6E3F2E0DE011396F2
S11309F001900D928A95E1F733243394912C1DA232
S1130A00512C212C4424439410E004C0412C01C0F7
S1130A10412C162D8091CB02882379F00E94030388
S1130A20982F937019F091E09093CA02887A29F074
S1130A3040E068EA8CE20E9411038091CA02882394
S1130A4009F442C0CE0149960E94AA038CE0FE013B
S1130A507996DE011D9601900D928A95E1F7288D15
S1130A60CE010F969F938F931F922F938E858F9312
S1130A708D858F938EE392E09F938F930E9400075E
S1130A801092CA028DE20E94DD02C82E0E94030366
S1130A90082F80EB0E94DD02D82E1F92CF928FE5A3
S1130AA092E09F938F930E9400071F92DF921F9200
S1130AB00F9389E692E09F938F930E9400070FB6ED
S1130AC0F894DEBF0FBECDBF70B273FA772470F80E
S1130AD080B282FA882480F885B191E0282F2470AE
S1130AE082FD90E0692E211104C0112321F010E051
S1130AF003C010E001C011E09314C9F0911007C0C5
S1130B000E94FF0393E09DA36894552451F841E0AB
S1130B10941207C00E94320486E08DA36894552481
S1130B2051F860E0852D0E940602392C252C911085
S1130B3011C0112379F0251004C084E892E00E94CA
S1130B401D07222D30E0852D90E0019628173907E6
S1130B50F9F41AC091E099121BC01123C9F04DA1F8
S1130B602416A9F0822D90E08519910901969F938E
S1130B708F9383E992E09F938F930E9400070F90D5
S1130B800F900F900F9004C09924939401C0912C5E
S1130B900E946F048091D30290E08058910924E66A
S1130BA0289F6001299FD00C1124DD201CF48FE7BD
S1130BB0C80ED11CCC0CCD2CCC1CDD088091CE02EF
S1130BC09091CF02C81AD90A8091D20290E080583D
S1130BD0910924E6289F5001299FB00C1124BB20C1
S1130BE01CF49FE7A90EB11CAA0CAB2CAA1CBB08D1
S1130BF08091CC029091CD02A81AB90A1A82198266
S1130C00CB82AC822091D1022D833091D0023E83DD
S1130C107F82888686E08C87E980FA800C2D1A2DE5
S1130C20472D582D69857A858B8596E00E944C0363
S1130C308C851F928F938A818F9389818F9387EA02
S1130C4092E09F938F930E9400070F900F900F9054
S1130C500F900F900F9000E010E015C0E3E0F0E07B
S1130C60EC0FFD1FE00FF11F80811F928F9385EC25
S1130C7092E09F938F930E9400070F5F1F4F0F9086
S1130C800F900F900F908C8590E00817190734F39C
S1130C908AE090E00E9416071C141D048CF4C50120
S1130CA0BB2024F4882799278A199B099601DD2003
S1130CB024F4222733272C193D0982179307ECF1DA
S1130CC01A141B048CF4C601DD2024F48827992708
S1130CD08C199D099501BB2024F4222733272A1956
S1130CE03B098217930764F1DD208CF4C501BB2016
S1130CF024F4882799278A199B099601DD2024F476
S1130D00222733272C193D0982179307E4F0BB20CF
S1130D10ECF4C601DD2024F4882799278C199D0959
S1130D209501BB2024F4222733272A193B09821773
S1130D3093077CF020E030E00EC024E030E00BC0EC
S1130D4021E030E008C023E030E005C020E030E0DE
S1130D5002C022E030E0CC9CA001CD9C500D500D8F
S1130D601124AA9CC001AB9C900D900D1124840FFA
S1130D70951F811549E1940714F425E030E0803192
S1130D809E4014F420E030E02115310511F4442490
S1130D904394442009F43DCE2130310591F480E0A0
S1130DA00E94E40161E070E083EC92E00E94400262
S1130DB0521408F42A9460E0822D0E940602412C09
S1130DC028CE2230310599F480E00E94E40161E0EC
S1130DD070E083EC92E00E9440028DA1281608F492
S1130DE0239460E0822D0E940602412C12CE23300F
S1130DF0310509F40BCE2430310509F00ACE08CEB2
S1130E00A0E0B0E0E6E0F7E00C94EE09AE014B5F41
S1130E105F4FFA0161917191AF018091D602909177
S1130E20D7020E944D07E2E00C940A0A6091D602B0
S1130E307091D7020E94440908950F931F93CF9392
S1130E40DF93E091D602F091D702238121FF1BC0EA
S1130E508C01D0E0C0E0F80181918F016091D6024D
S1130E607091D702DB011896ED91FC9119978823B4
S1130E7031F00995892B79F3DFEFCFEFECCF8AE0DE
S1130E800995892B19F08FEF9FEF02C08D2F9C2FAE
S1130E90DF91CF911F910F910895ABE0B0E0E3E5AE
S1130EA0F7E00C94DE096C017B018A01FC011782D6
S1130EB01682838181FFCCC1CE0101963C01F601EB
S1130EC09381F70193FD859193FF81917F0188239D
S1130ED009F4BAC1853239F493FD859193FF819168
S1130EE07F01853229F4B60190E00E944409E7CFDE
S1130EF0912C212C312CFFE1F315D8F08B3279F0B1
S1130F0038F4803279F08332A1F4232D20611DC09E
S1130F108D3261F0803369F4232D216016C0832D56
S1130F208260382EE32DE4603E2E2AC0F32DF86053
S1130F301DC037FC2DC020ED280F2A3040F08E3222
S1130F40B9F436FC81C1232D2064322E19C036FE3B
S1130F5006C08AE0989E200D1124922E11C0EAE06A
S1130F602E9E200D1124222EF32DF0623F2E08C058
S1130F708C3621F4832D8068382E02C0883641F4E3
S1130F80F70193FD859193FF81917F018111B3CF87
S1130F90982F9F7D9554933028F40C5F1F4F9FE347
S1130FA099830DC0833631F0833771F0833509F0AE
S1130FB059C021C0F801808189830E5F1F4F8824A6
S1130FC08394912C530113C02801F2E04F0E511C5D
S1130FD0F801A080B18036FE03C0692D70E002C024
S1130FE06FEF7FEFC5010E9439094C018201F32D97
S1130FF0FF773F2E16C0280122E0420E511CF80153
S1131000A080B18036FE03C0692D70E002C06FEF8E
S11310107FEFC5010E942E094C01F32DF0683F2E8D
S1131020820133FC1BC0822D90E088169906B0F42F
S1131030B60180E290E00E9444092A94F4CFF501BD
S113104037FC859137FE81915F01B60190E00E94E3
S1131050440921102A9421E0821A910881149104F0
S113106071F7E8C0843611F0893641F5F80137FE8E
S113107007C060817181828193810C5F1F4F08C01A
S113108060817181072E000C880B990B0E5F1F4F36
S1131090F32DFF763F2E97FF09C0909580957095AC
S11310A061957F4F8F4F9F4FF0683F2E2AE030E0CD
S11310B0A3010E948009882E861845C0853731F423
S11310C0232D2F7EB22E2AE030E025C0932D997F68
S11310D0B92E8F36C1F018F4883579F0B5C0803751
S11310E019F0883721F0B0C0E92FE061BE2EB4FEBC
S11310F00DC0FB2DF460BF2E09C034FE0AC0292F99
S11311002660B22E06C028E030E005C020E130E0C1
S113111002C020E132E0F801B7FE07C060817181AE
S1131120828193810C5F1F4F06C06081718180E0D2
S113113090E00E5F1F4FA3010E948009882E86183D
S1131140FB2DFF773F2E36FE0DC0232D2E7FA22EC2
S1131150891458F434FE0BC032FC09C0832D8E7EF2
S1131160A82E05C0B82CA32C03C0B82C01C0B92CE0
S1131170A4FE0FC0FE01E80DF11D8081803321F42F
S11311809A2D997EA92E09C0A2FE06C0B394B394E9
S113119004C08A2D867809F0B394A3FC11C0A0FE84
S11311A006C0B21488F4280C922C9B180EC0B214FA
S11311B060F4B60180E290E00E944409B394F7CF52
S11311C0B21418F42B1802C0982C212CA4FE10C0C1
S11311D0B60180E390E00E944409A2FE17C0A1FC7E
S11311E003C088E790E002C088E590E0B6010CC037
S11311F08A2D867859F0A1FE02C08BE201C080E2FC
S1131200A7FC8DE2B60190E00E944409891438F4E9
S1131210B60180E390E00E9444099A94F7CF8A943F
S1131220F301E80DF11D8081B60190E00E944409AC
S11312308110F5CF222009F442CEB60180E290E07D
S11312400E9444092A94F6CFF6018681978102C050
S11312508FEF9FEF2B96E2E10C94FA09FC010590C5
S1131260615070400110D8F7809590958E0F9F1FA4
S11312700895FC016150704001900110D8F78095E9
S113128090958E0F9F1F08950F931F93CF93DF9315
S1131290FB01238121FD03C08FEF9FEF2CC022FFB0
S11312A016C046815781248135814217530744F47F
S11312B0A081B1819D012F5F3F4F318320838C93A7
S11312C0268137812F5F3F4F3783268314C08B01DC
S11312D0EC01FB010084F185E02D0995892BE1F6F1
S11312E0D80116968D919C911797019617969C9309
S11312F08E931697CE01DF91CF911F910F91089590
S1131300FA01AA27283051F1203181F1E8946F9332
S11313106E7F6E5F7F4F8F4F9F4FAF4FB1E03ED0D8
S1131320B4E03CD0670F781F891F9A1FA11D680F76
S1131330791F8A1F911DA11D6A0F711D811D911DA9
S1131340A11D20D009F468943F912AE0269F11241E
S11313503019305D3193DEF6CF010895462F477082
S1131360405D4193B3E00FD0C9F7F6CF462F4F70DD
S1131370405D4A3318F0495D31FD4052419302D03B
S1131380A9F7EACFB4E0A6959795879577956795E1
S1131390BA95C9F700976105710508959B01AC01E1
S11313A00A2E06945795479537952795BA95C9F708
S11313B0620F731F841F951FA01D08952F923F92E3
S11313C04F925F926F927F928F929F92AF92BF9251
S11313D0CF92DF92EF92FF920F931F93CF93DF93FD
S11313E0CDB7DEB7CA1BDB0B0FB6F894DEBF0FBE5A
S11313F0CDBF09942A88398848885F846E847D84A7
S11314008C849B84AA84B984C884DF80EE80FD80A8
S11314100C811B81AA81B981CE0FD11D0FB6F8941E
S1111420DEBF0FBECDBFED010895F894FFCFDF
S113142E0000000300000000D301D70100004D614D
S113143E696E206D656E75005072696E74207465E8
S113144E7374004F7074696F6E73004F7074696FAC
S113145E6E200052657475726E004E6F20706F723E
S113146E742076616C756573206368616E6765645C
S113147E005374617274696E67205352414D207427
S113148E6573742E2E2E0057726974652070686110
S113149E7365206572726F723A206578745F72613B
S11314AE6D5B2534645D203D202530325820287331
S11314BE686F756C642062652025303258290A00E5
S11314CE52657472696576616C207068617365200B
S11314DE6572726F723A206578745F72616D5B2506
S11314EE34645D203D2025303258202873686F7592
S11314FE6C642062652025303258290A005352410B
S113150E4D207465737420636F6D706C65746564BF
S113151E2077697468200A253464206572726F72AC
S113152E7320696E207772697465207068617365C3
S113153E20616E64200A253464206572726F7273A2
S113154E20696E2072657472696576616C207068AC
S113155E6173650A0A0054455354313233004944C9
S113156E3A2025642C206C656E6774683A202564D5
S113157E2C206D6573736167653A2025730A0045E7
S113158E464C473A2025580A005374617475733AD1
S113159E2025582C2052585F7374617475733A2049
S11315AE25580A00427574746F6E207072657373D9
S11315BE6564004F7074696F6E2025642073656CCA
S11315CE65637465640A0049443A2025642C206CD2
S11315DE656E6774683A2025642C206D657373619B
S10D15EE67653A2000256420000020
S9030000FC
