S013000050696E67506F6E674C61622E73726563E0
S11300000C94B4010C94D1010C94D1010C94D10141
S11300100C94D1010C94D1010C94D1010C94D10114
S11300200C94D1010C94D1010C94D1010C94D10104
S11300300C94D1010C94D1010C94D1010C94D101F4
S11300400C94D1010C94D1010C94D1010C94D101E4
S11300500C94D1010C94D1010C94D1010C94D101D4
S11300600C94D1010C94D1010C94D1010C94D101C4
S1130070000000000000000000065F5F06000000B2
S11300800007070007070000147F7F147F7F140018
S1130090242E6B6B3A120000466630180C66620020
S11300A0307A4F5D377A48000407030000000000EF
S11300B0001C3E63410000000041633E1C00000040
S11300C0082A3E1C1C3E2A0808083E3E0808000078
S11300D000A0E0600000000008080808080800000C
S11300E000006060000000006030180C060301008E
S11300F03E7F594D7F3E000042427F7F40400000DA
S1130100627359496F660000226349497F360000D3
S1130110181C16137F7F1000276745457D390000A2
S11301203C7E4B4979300000036371190F070000CE
S1130130367F49497F360000064F49693F1E00005B
S113014000006C6C0000000000A0EC6C00000000DB
S1130150081C366341000000141414141414000025
S1130160004163361C080000020351590F060000C9
S11301703E7F415D5D1F1E007C7E13137E7C00006C
S1130180417F7F49497F36001C3E63414163220021
S1130190417F7F41637F1C00417F7F495D41630054
S11301A0417F7F491D0103001C3E6341517372006E
S11301B07F7F08087F7F000000417F7F41000000AF
S11301C0307040417F3F0100417F7F081C7763000E
S11301D0417F7F41406070007F7F060C067F7F0077
S11301E07F7F060C187F7F001C3E6341633E1C002A
S11301F0417F7F49090F06001E3F21717F5E000089
S1130200417F7F19396F460026674D597B320000C4
S113021003417F7F410300007F7F40407F7F0000D8
S11302201F3F60603F1F00007F7F3018307F7F00DA
S113023063771C081C776300074F78784F0700002A
S11302406773594D47637100007F7F41410000008F
S11302500103060C183060000041417F7F0000005C
S1130260080C0603060C0800808080808080808053
S11302700000030704000000207454543C7840003C
S1130280413F7F44447C3800387C44446C2800005F
S1130290307848493F7F4000387C54545C18000053
S11302A0487E7F490302000098BCA4A4F87C0400A3
S11302B0417F7F08047C780000447D7D400000007D
S11302C040C484FD7D000000417F7F10386C4400F1
S11302D000417F7F400000007C7C0C180C7C78007F
S11302E07C7C04047C780000387C44447C38000026
S11302F084FCF8A4243C1800183C24A4F8FC8400D2
S1130300447C78441C180000485C54547424000055
S113031000043E7F442400003C7C40403C7C400080
S11303201C3C60603C1C00003C7C6030607C3C00F9
S1130330446C3810386C44009CBCA0A0FC7C0000C9
S11303404C64745C4C64000008083E774141000032
S113035000000077770000004141773E0808000064
S1130360020301030203010011241FBECFEFD4E0F6
S1130370DEBFCDBF12E0A0E0B1E0E2EEFFE002C0DC
S113038005900D92A235B107D9F722E0A2E5B2E0BB
S113039001C01D92A036B207E1F70E9472030C94CB
S11303A0EF070C9400005D9BFECF8CB908955F9B12
S11303B0FECF8CB10895809300100895883018F40E
S11303C080550E94DB010895CF93882354F0C82FF1
S11303D0C295CF708F700E94DB0180E18C0F0E9468
S11303E0DB01CF910895CF93C62F0E94DE018C2F9D
S11303F00E94E401CF91089580E00E94DE0180E034
S11304000E94E40108958093001208950E94F3016C
S113041080E00E94030288E10E94030288E10E94B6
S1130420030288E10E9403028EE70E9403028CE328
S11304300E94030288E10E94030280E00E940302FA
S113044008951F93CF93DF93182FC0E0D0E011C01D
S1130450E12FF0E0B097EE0FFF1FEE0FFF1FEE0F3E
S1130460FF1FEC0FFD1FE059FF4F84910E94030210
S11304702196C830D10564F3DF91CF911F9108957F
S1130480EF92FF920F931F93CF93DF937C018B0125
S1130490C0E0D0E007C0F701EC0FFD1F80810E948F
S11304A021022196C017D107B4F3DF91CF911F9198
S11304B00F91FF90EF900895CF93DF930E94DE0198
S11304C0C0E0D0E004C080E00E9403022196C0385E
S11304D0D105CCF3DF91CF910895CF93DF93C0E0A2
S11304E0D0E004C08C2F0E945C022196C830D10554
S11304F0CCF30E94FC01DF91CF9108958EEA0E9413
S1130500DB0181EA0E94DB018AED0E94DB0182E1CA
S11305100E94DB0188EC0E94DB0188EA0E94DB0177
S11305208FE30E94DB0185ED0E94DB0180E80E94DD
S1130530DB0181E80E94DB0180E50E94DB0189ED9B
S11305400E94DB0181E20E94DB0180E20E94DB0168
S113055082E00E94DB018BED0E94DB0180E30E94BC
S1130560DB018DEA0E94DB0180E00E94DB0184EA6A
S11305700E94DB0186EA0E94DB018FEA0E94DB0114
S11305800895CF93DF930E946D026AE080E00E9499
S1130590F30169E070E08EE091E00E9440026AE0BD
S11305A081E00E94F301C0E0D0E004C081E00E9439
S11305B003022196C834D105CCF36AE082E00E949C
S11305C0F3016AE070E088E191E00E9440026AE091
S11305D083E00E94F30167E070E083E291E00E940F
S11305E04002DF91CF910895CF93DF930E946D0273
S11305F06AE080E00E94F30167E070E083E291E04A
S11306000E9440026AE081E00E94F301C0E0D0E071
S113061004C081E00E9403022196C834D105CCF3C2
S1130620C0E010C06AE082E08C0F0E94F30167E032
S113063070E08BE291E00E94400281E38C0F0E9403
S11306402102CF5FC43070F36AE086E00E94F301B8
S113065069E070E08EE091E00E944002DF91CF916A
S11306600895E0E0F4E180E1808382E1808381E128
S1130670808383E080838CEC94E00197F1F700C0E1
S11306800000808180935902808180935802808188
S113069080935702808180935602089590BD89B952
S11306A088E18AB98EEA80BD089585B7806885BFE0
S11306B080B7806280BF08959C0191B3906191BB23
S11306C0EBE8F0E0908190649083EAE8F0E09081B8
S11306D098609083309387002093860080818160A6
S11306E0808308958FEF8ABB86B1826086B981B317
S11306F011BA86B1846086B986B116B88FE190E0EC
S11307000E944E0380E090E00E945C030E94550327
S11307100E947E02EAE5F2E080E091E09383828326
S1130720918380830E946D02EE24E394C0E0D12C77
S113073010E0F12C01E020E004C000E001C000E082
S11307402D2F80B380B385B1D1E0982F917080FDB7
S1130750D0E0911104C0222321F0C12C04C0C12C8B
S113076002C0CC24C394CE15C1F0C11107C00E94AD
S1130770C1020F2EF3E0DF2EF02D12E0C13039F468
S11307800E94F4020F2EF6E0DF2EF02D12E060E05E
S1130790812F0E940602EC2EF12EC11111C0CC2033
S11307A079F0F11204C08FE292E00E94F7042F2D39
S11307B030E0812F90E0019628173907E1F418C042
S11307C0C130C9F4CC20B9F0FD14A1F08F2D90E014
S11307D0811B910901969F938F938EE392E09F93DF
S11307E08F930E94E1040F900F900F900F9003C01D
S11307F0C1E001C0C0E00E9431032091590230E001
S11308002058310944E6429FC001439F900D1124B2
S1130810992314F481589F4F880F892F881F990BAF
S11308202091540230915502821B930B409158023F
S113083050E04058510964E6649F9001659F300D73
S11308401124332314F421583F4F220F232F221F46
S1130850330B4091520250915302241B350B18164E
S113086019068CF4A901332324F444275527421B89
S1130870530BBC01992324F466277727681B790B53
S113088046175707ECF1121613068CF4AC019923A2
S113089024F444275527481B590BB901332324F466
S11308A066277727621B730B4617570764F1992352
S11308B08CF4A901332324F444275527421B530BFA
S11308C0BC01992324F466277727681B790B461704
S11308D05707E4F03323ECF4AC01992324F44427C0
S11308E05527481B590BB901332324F4662777276E
S11308F0621B730B461757077CF040E050E00EC0B4
S113090044E050E00BC041E050E008C043E050E058
S113091005C040E050E002C042E050E0889FB001D2
S1130920899F700D700D1124229FC001239F900D8B
S1130930900D1124860F971F811529E1920714F455
S113094045E050E080319E4014F440E050E0411511
S1130950510509F401E0002309F4F2CE41305105B8
S113096091F480E00E94E40161E070E081E391E0B1
S11309700E9440021F1508F4FA9460E08F2D0E9433
S1130980060200E0DDCE4230510591F480E00E9481
S1130990E40161E070E081E391E00E944002FD1413
S11309A008F4F39460E08F2D0E94060200E0C8CEA4
S11309B04330510509F4C1CE4430510509F0C0CE8D
S11309C0BECEA0E0B0E0E7EEF4E00C94C807AE01C0
S11309D04B5F5F4FFA0161917191AF0180915C02AD
S11309E090915D020E942705E2E00C94E4070F93C6
S11309F01F93CF93DF93E0915C02F0915D0223811A
S1130A0021FF1BC08C01D0E0C0E0F80181918F016F
S1130A1060915C0270915D02DB011896ED91FC918E
S1130A201997882331F00995892B79F3DFEFCFEFFC
S1130A30ECCF8AE00995892B19F08FEF9FEF02C064
S1130A408D2F9C2FDF91CF911F910F910895ABE0D3
S1130A50B0E0EDE2F5E00C94B8076C017B018A018B
S1130A60FC0117821682838181FFCCC1CE010196DD
S1130A703C01F6019381F70193FD859193FF8191E8
S1130A807F01882309F4BAC1853239F493FD859135
S1130A9093FF81917F01853229F4B60190E00E9491
S1130AA01E07E7CF912C212C312CFFE1F315D8F050
S1130AB08B3279F038F4803279F08332A1F4232D2B
S1130AC020611DC08D3261F0803369F4232D2160D3
S1130AD016C0832D8260382EE32DE4603E2E2AC09A
S1130AE0F32DF8601DC037FC2DC020ED280F2A30EF
S1130AF040F08E32B9F436FC81C1232D2064322EAD
S1130B0019C036FE06C08AE0989E200D1124922E4C
S1130B1011C0EAE02E9E200D1124222EF32DF06246
S1130B203F2E08C08C3621F4832D8068382E02C0F5
S1130B30883641F4F70193FD859193FF81917F01FC
S1130B408111B3CF982F9F7D9554933028F40C5F77
S1130B501F4F9FE399830DC0833631F0833771F0C3
S1130B60833509F059C021C0F801808189830E5F63
S1130B701F4F88248394912C530113C02801F2E061
S1130B804F0E511CF801A080B18036FE03C0692DC0
S1130B9070E002C06FEF7FEFC5010E9413074C01A4
S1130BA08201F32DFF773F2E16C0280122E0420E6A
S1130BB0511CF801A080B18036FE03C0692D70E09D
S1130BC002C06FEF7FEFC5010E9408074C01F32DAF
S1130BD0F0683F2E820133FC1BC0822D90E0881602
S1130BE09906B0F4B60180E290E00E941E072A94B0
S1130BF0F4CFF50137FC859137FE81915F01B60191
S1130C0090E00E941E0721102A9421E0821A910884
S1130C108114910471F7E8C0843611F0893641F5E6
S1130C20F80137FE07C060817181828193810C5F76
S1130C301F4F08C060817181072E000C880B990B2F
S1130C400E5F1F4FF32DFF763F2E97FF09C090953F
S1130C508095709561957F4F8F4F9F4FF0683F2E21
S1130C602AE030E0A3010E945A07882E861845C066
S1130C70853731F4232D2F7EB22E2AE030E025C0B3
S1130C80932D997FB92E8F36C1F018F4883579F0F9
S1130C90B5C0803719F0883721F0B0C0E92FE06182
S1130CA0BE2EB4FE0DC0FB2DF460BF2E09C034FE71
S1130CB00AC0292F2660B22E06C028E030E005C005
S1130CC020E130E002C020E132E0F801B7FE07C0C5
S1130CD060817181828193810C5F1F4F06C06081A6
S1130CE0718180E090E00E5F1F4FA3010E945A07BC
S1130CF0882E8618FB2DFF773F2E36FE0DC0232D40
S1130D002E7FA22E891458F434FE0BC032FC09C085
S1130D10832D8E7EA82E05C0B82CA32C03C0B82C1E
S1130D2001C0B92CA4FE0FC0FE01E80DF11D8081A5
S1130D30803321F49A2D997EA92E09C0A2FE06C003
S1130D40B394B39404C08A2D867809F0B394A3FCB9
S1130D5011C0A0FE06C0B21488F4280C922C9B1873
S1130D600EC0B21460F4B60180E290E00E941E0747
S1130D70B394F7CFB21418F42B1802C0982C212C7A
S1130D80A4FE10C0B60180E390E00E941E07A2FEFC
S1130D9017C0A1FC03C088E790E002C088E590E09A
S1130DA0B6010CC08A2D867859F0A1FE02C08BE2F0
S1130DB001C080E2A7FC8DE2B60190E00E941E070C
S1130DC0891438F4B60180E390E00E941E079A94D7
S1130DD0F7CF8A94F301E80DF11D8081B60190E00C
S1130DE00E941E078110F5CF222009F442CEB601DD
S1130DF080E290E00E941E072A94F6CFF6018681D5
S1130E00978102C08FEF9FEF2B96E2E10C94D407F9
S1130E10FC010590615070400110D8F780959095C1
S1130E208E0F9F1F0895FC016150704001900110C6
S1130E30D8F7809590958E0F9F1F08950F931F9359
S1130E40CF93DF93FB01238121FD03C08FEF9FEF3D
S1130E502CC022FF16C04681578124813581421758
S1130E60530744F4A081B1819D012F5F3F4F31832B
S1130E7020838C93268137812F5F3F4F37832683CE
S1130E8014C08B01EC01FB010084F185E02D099570
S1130E90892BE1F6D80116968D919C9117970196AE
S1130EA017969C938E931697CE01DF91CF911F9145
S1130EB00F910895FA01AA27283051F1203181F1C8
S1130EC0E8946F936E7F6E5F7F4F8F4F9F4FAF4F4E
S1130ED0B1E03ED0B4E03CD0670F781F891F9A1F61
S1130EE0A11D680F791F8A1F911DA11D6A0F711D15
S1130EF0811D911DA11D20D009F468943F912AE021
S1130F00269F11243019305D3193DEF6CF01089508
S1130F10462F4770405D4193B3E00FD0C9F7F6CF39
S1130F20462F4F70405D4A3318F0495D31FD405201
S1130F30419302D0A9F7EACFB4E0A6959795879597
S1130F4077956795BA95C9F7009761057105089576
S1130F509B01AC010A2E0694579547953795279522
S1130F60BA95C9F7620F731F841F951FA01D0895BA
S1130F702F923F924F925F926F927F928F929F92A5
S1130F80AF92BF92CF92DF92EF92FF920F931F9393
S1130F90CF93DF93CDB7DEB7CA1BDB0B0FB6F89444
S1130FA0DEBF0FBECDBF09942A88398848885F8484
S1130FB06E847D848C849B84AA84B984C884DF80F5
S1130FC0EE80FD800C811B81AA81B981CE0FD11DD9
S1130FD00FB6F894DEBF0FBECDBFED010895F894AF
S1050FE0FFCF3D
S1130FE20000000300000000D301D70100004D619E
S1130FF2696E206D656E75005072696E7420746539
S11310027374004F7074696F6E73004F7074696FFC
S11310126E20004E6F20706F72742076616C75655D
S113102273206368616E67656400537461727469E6
S11310326E67205352414D20746573742E2E2E0018
S11310425772697465207068617365206572726F86
S1131052723A206578745F72616D5B2534645D2039
S11310623D2025303258202873686F756C642062E5
S1131072652025303258290A0052657472696576F2
S1131082616C207068617365206572726F723A20B8
S11310926578745F72616D5B2534645D203D202543
S11310A2303258202873686F756C6420626520257D
S11310B2303258290A005352414D2074657374200A
S11310C2636F6D706C657465642077697468200A57
S11310D2253464206572726F727320696E20777290
S11310E269746520706861736520616E64200A25E5
S11310F23464206572726F727320696E2072657433
S113110272696576616C2070686173650A0A0042CF
S11311127574746F6E2070726573736564004F70BA
S113112274696F6E2025642073656C6563746564ED
S10511320A00AD
S9030000FC
