S013000050696E67506F6E674C61622E73726563E0
S11300000C94B4010C94D1010C94D1010C943A04D5
S11300100C94D1010C94D1010C94D1010C94D10114
S11300200C94D1010C94D1010C94D1010C94D10104
S11300300C94D1010C94D1010C94D1010C94D101F4
S11300400C94D1010C94D1010C94D1010C94D101E4
S11300500C94D1010C94D1010C94D1010C94D101D4
S11300600C94D1010C94D1010C94D1010C94D101C4
S1130070000000000000000000065F5F06000000B2
S11300800007070007070000147F7F147F7F140018
S1130090242E6B6B3A120000466630180C66620020
S11300A0307A4F5D377A48000407030000000000EF
S11300B0001C3E63410000000041633E1C00000040
S11300C0082A3E1C1C3E2A0808083E3E0808000078
S11300D000A0E0600000000008080808080800000C
S11300E000006060000000006030180C060301008E
S11300F03E7F594D7F3E000042427F7F40400000DA
S1130100627359496F660000226349497F360000D3
S1130110181C16137F7F1000276745457D390000A2
S11301203C7E4B4979300000036371190F070000CE
S1130130367F49497F360000064F49693F1E00005B
S113014000006C6C0000000000A0EC6C00000000DB
S1130150081C366341000000141414141414000025
S1130160004163361C080000020351590F060000C9
S11301703E7F415D5D1F1E007C7E13137E7C00006C
S1130180417F7F49497F36001C3E63414163220021
S1130190417F7F41637F1C00417F7F495D41630054
S11301A0417F7F491D0103001C3E6341517372006E
S11301B07F7F08087F7F000000417F7F41000000AF
S11301C0307040417F3F0100417F7F081C7763000E
S11301D0417F7F41406070007F7F060C067F7F0077
S11301E07F7F060C187F7F001C3E6341633E1C002A
S11301F0417F7F49090F06001E3F21717F5E000089
S1130200417F7F19396F460026674D597B320000C4
S113021003417F7F410300007F7F40407F7F0000D8
S11302201F3F60603F1F00007F7F3018307F7F00DA
S113023063771C081C776300074F78784F0700002A
S11302406773594D47637100007F7F41410000008F
S11302500103060C183060000041417F7F0000005C
S1130260080C0603060C0800808080808080808053
S11302700000030704000000207454543C7840003C
S1130280413F7F44447C3800387C44446C2800005F
S1130290307848493F7F4000387C54545C18000053
S11302A0487E7F490302000098BCA4A4F87C0400A3
S11302B0417F7F08047C780000447D7D400000007D
S11302C040C484FD7D000000417F7F10386C4400F1
S11302D000417F7F400000007C7C0C180C7C78007F
S11302E07C7C04047C780000387C44447C38000026
S11302F084FCF8A4243C1800183C24A4F8FC8400D2
S1130300447C78441C180000485C54547424000055
S113031000043E7F442400003C7C40403C7C400080
S11303201C3C60603C1C00003C7C6030607C3C00F9
S1130330446C3810386C44009CBCA0A0FC7C0000C9
S11303404C64745C4C64000008083E774141000032
S113035000000077770000004141773E0808000064
S1130360020301030203010011241FBECFEFD4E0F6
S1130370DEBFCDBF12E0A0E0B1E0E6EDF5E102C0E2
S113038005900D92A63EB107D9F722E0A6EEB2E0A1
S113039001C01D92A63FB207E1F70E9483050C94A9
S11303A0E90A0C9400005D9BFECF8CB908955F9B15
S11303B0FECF8CB10895809300100895883018F40E
S11303C080550E94DB010895CF93882354F0C82FF1
S11303D0C295CF708F700E94DB0180E18C0F0E9468
S11303E0DB01CF910895CF93C62F0E94DE018C2F9D
S11303F00E94E401CF91089580E00E94DE0180E034
S11304000E94E40108958093001208950E94F3016C
S113041080E00E94030288E10E94030288E10E94B6
S1130420030288E10E9403028EE70E9403028CE328
S11304300E94030288E10E94030280E00E940302FA
S1130440089580E00E9403028EE00E94030281E18D
S11304500E94030281E20E94030281E40E940302DB
S113046082E80E94030282E80E94030281E40E945F
S1130470030281E20E94030281E10E9403028EE0F2
S11304800E94030280E00E940302089580E00E941B
S113049003028EE00E9403028FE10E9403028FE3B5
S11304A00E9403028FE70E9403028EEF0E94030260
S11304B08EEF0E9403028FE70E9403028FE30E94E3
S11304C003028FE10E9403028EE00E94030280E097
S11304D00E94030208951F93CF93DF93182FC0E067
S11304E0D0E011C0E12FF0E0B097EE0FFF1FEE0F48
S11304F0FF1FEE0FFF1FEC0FFD1FE059FF4F84910C
S11305000E9403022196C830D10564F3DF91CF9194
S11305101F910895EF92FF920F931F93CF93DF9350
S11305207C018B01C0E0D0E007C0F701EC0FFD1F98
S113053080810E946B022196C017D107B4F3DF912A
S1130540CF911F910F91FF90EF900895CF93DF9378
S11305500E94DE01C0E0D0E004C080E00E940302FB
S11305602196C038D105CCF3DF91CF910895CF9374
S1130570DF93C0E0D0E004C08C2F0E94A602219635
S1130580C830D105CCF30E94FC01DF91CF910895CE
S11305908EEA0E94DB0181EA0E94DB018AED0E945F
S11305A0DB0182E10E94DB0188EC0E94DB0188EA26
S11305B00E94DB018FE30E94DB0185ED0E94DB01D9
S11305C080E80E94DB0181E80E94DB0180E50E9453
S11305D0DB0189ED0E94DB0181E20E94DB0180E204
S11305E00E94DB0182E00E94DB018BED0E94DB01B3
S11305F080E30E94DB018DEA0E94DB0180E00E941F
S1130600DB0184EA0E94DB0186EA0E94DB018FEAB7
S11306100E94DB01089587B3806B87BB87B38F7B10
S113062087BB8DB181658DB908958FB9779BFECF56
S113063008958FEF8FB9779BFECF8FB1089588B35C
S11306408F7E88BB089588B3806188BB0895CF935B
S1130650C82F0E941F0383E00E9415038C2F0E9461
S113066015030E941903C82F0E9423038C2FCF91D6
S11306700895CF93DF93D82FC62F0E941F0382E0E3
S11306800E9415038D2F0E9415038C2F0E941503C1
S11306900E942303DF91CF910895CF930E941F03FB
S11306A080EA0E9415030E941903C82F0E942303A5
S11306B08C2FCF9108951F93CF93DF93182FD62FAC
S11306C0C42F0E941F0385E00E941503812F0E94FE
S11306D015038D2F0E9415038C2F0E9415030E9471
S11306E02303DF91CF911F9108950E941F0380EC93
S11306F00E9415030E94230308950E94750365EC6C
S11307008AE20E9439036FE389E20E94390360E0C0
S11307108FE00E94390341E061E08BE20E945B03B9
S113072040EC60EC80E60E945B030895EF92FF9238
S11307300F931F93CF93DF93CDB7DEB72C970FB6EC
S1130740F894DEBF0FBECDBFE982FA820B831C830F
S11307502D833E834F83588769877A878B879C874D
S113076009811A81B801769567957695679576958E
S1130770679581E30E943903602F6295660F607E5E
S113078082E30E94390360E085E30E943903FC841C
S11307904F2D6FE085E30E945B0300E010E00DC085
S11307A0E3E0F0E0EC0FFD1FE00FF11F608186E352
S11307B0800F0E9439030F5F1F4F8F2D90E00817A1
S11307C0190774F34FEF68E080E30E945B032C96F3
S11307D00FB6F894DEBF0FBECDBFDF91CF911F914E
S11307E00F91FF90EF900895EF92FF921F93CF9394
S11307F0DF937C0181E60E942703C82F82E60E94D2
S113080027032C2F30E0322F2227282B35952795CC
S113081035952795359527953595279535952795BC
S1130820F7013183208385E60E942703182F1F7068
S1130830193008F018E0F7011387C0E0D0E009C0D0
S11308408C2F8A590E942703F701EC0FFD1F828326
S11308502196812F90E0C817D90794F340E063E014
S11308608CE20E945B03C701DF91CF911F91FF903F
S1130870EF9008951F920F920FB60F9211248F9349
S113088081E08093E7028F910F900FBE0F901F902D
S11308901895CF93DF930E94B7026AE080E00E942C
S11308A0F30169E070E08EE091E00E948A026AE060
S11308B081E00E94F301C0E0D0E004C081E00E9426
S11308C003022196C834D105CCF36AE082E00E9489
S11308D0F30169E070E088E191E00E948A026AE035
S11308E083E00E94F3016BE070E082E291E00E94F9
S11308F08A02DF91CF910895CF93DF930E94B702CC
S11309006AE080E00E94F3016BE070E082E291E033
S11309100E948A026AE081E00E94F301C0E0D0E014
S113092004C081E00E9403022196C835D105CCF3AE
S11309306AE082E00E94F3016CE070E08EE291E0F4
S11309400E948A026AE083E00E94F3016DE070E095
S11309508BE391E00E948A026AE084E00E94F30142
S113096069E070E089E491E00E948A026AE086E02E
S11309700E94F30166E070E083E591E00E948A0240
S1130980DF91CF9108950F931F93CF93DF93082F97
S1130990162F0E94B7026AE080E00E94F3016EE025
S11309A070E08AE591E00E948A026AE081E00E9498
S11309B0F301C0E0D0E004C081E00E94030221966C
S11309C0C037D105CCF36AE082E00E94F30163E012
S11309D070E089E691E00E948A02C0E0D0E00BC09A
S11309E0802F90E0C817D9071CF40E94460202C069
S11309F00E9421022196812F90E0C817D90784F321
S1130A006AE086E00E94F30166E070E083E591E02D
S1130A100E948A02DF91CF911F910F910895CF9385
S1130A20DF930E94B7026AE080E00E94F30169E06C
S1130A3070E08DE691E00E948A026AE081E00E9403
S1130A40F301C0E0D0E004C081E00E9403022196DB
S1130A50C834D105CCF36AE082E00E94F3016AE075
S1130A6070E087E791E00E948A026AE083E00E94D6
S1130A70F30166E070E083E591E00E948A02DF9171
S1130A80CF910895E0E0F4E180E1808382E1808306
S1130A9081E1808383E080838CEC94E00197F1F71B
S1130AA000C0000080818093EF0280818093EE0279
S1130AB080818093ED0280818093EC02089590BD43
S1130AC089B988E18AB98EEA80BD089585B78068BE
S1130AD085BF80B7806280BF08959C0191B3906107
S1130AE091BBEBE8F0E0908190649083EAE8F0E059
S1130AF09081986090833093870020938600808152
S1130B00816080830895CF93DF93CDB7DEB7A89734
S1130B100FB6F894DEBF0FBECDBF8FEF8ABB86B190
S1130B20826086B981B311BA86B116B886B18E7F58
S1130B3086B98BB787708BBF86B78E7F86BF8AB71F
S1130B4080628ABF8BB780628BBF78948FE190E01C
S1130B500E945F0580E090E00E946D050E9466059A
S1130B600E94C8020E940B030E947D03E0EFF2E0A2
S1130B7080E091E093838283918380830E94B70213
S1130B808AE290E09A83898387E08C8788E0EEE7A5
S1130B90F2E0DE01139601900D928A95E1F723E0CD
S1130BA028A783E08EA3612C22242394912C1FA2D6
S1130BB0512C412C3324339410E08091E702882394
S1130BC079F00E944D03982F937019F091E090935F
S1130BD0E602887A29F040E068EA8CE20E945B032E
S1130BE08091E602882309F446C0CE0149960E940A
S1130BF0F4038CE0FE017996DE011D9601900D92BE
S1130C008A95E1F7288DCE010F969F938F931F92BB
S1130C102F938E858F938D858F9386E892E09F9393
S1130C208F930E940B081092E6028DE20E94270324
S1130C30C82E0E944D03082F80EB0E942703D82E54
S1130C401F92CF9287EA92E09F938F930E940B08A2
S1130C501F92DF921F920F9381EB92E09F938F93E9
S1130C600E940B088F8593E0981B9EA30FB6F894FF
S1130C70DEBF0FBECDBF70B273FA772470F880B2B6
S1130C8082FA882480F885B191E0282F247082FDAF
S1130C9090E09DA3211104C0112321F010E003C0B2
S1130CA010E001C011E09214B9F1911007C00E9444
S1130CB0490493E09FA36894552451F821E09212CB
S1130CC008C00E947C0486E08FA30F2EF6E05F2EFE
S1130CD0F02D92E099120FC063E083E00E94C304F8
S1130CE023E02EA36624639486E08FA30F2EF6E000
S1130CF05F2EF02D01C0612C93E0991207C00E9471
S1130D000F0523E02FA36894552451F860E0852D46
S1130D100E940602292C452C82E098120AC09EA14A
S1130D2028A5921731F063E0892F0E94C3048EA195
S1130D3088A7911011C0112379F0451003C068945D
S1130D40992491F8242D30E0852D90E00196281700
S1130D50390709F041C035C091E099121AC0112336
S1130D60C1F02FA1421681F1842D90E085199109DB
S1130D7001969F938F938CEC92E09F938F930E94A4
S1130D800B080F900F900F900F906894662461F8F1
S1130D9023C082E0981202C011111BC093E0991283
S1130DA01BC01123C9F0451003C06894992491F81D
S1130DB0242D30E0852D90E001962817390761F441
S1130DC00AC09924939408C06894662461F8912C0D
S1130DD003C0912C01C0912C22E0921207C08EA175
S1130DE0811104C00F2EF3E09F2EF02D0E944205C6
S1130DF08091EF0290E08058910924E6289F6001D9
S1130E00299FD00C1124DD201CF49FE7C90ED11CAE
S1130E10CC0CCD2CCC1CDD088091EA029091EB0225
S1130E20C81AD90A8091EE0290E08058910924E60C
S1130E30289F5001299FB00C1124BB201CF42FE7DC
S1130E40A20EB11CAA0CAB2CAA1CBB088091E80210
S1130E509091E902A81AB90A1A82198204E60C0DC3
S1130E600B8314E61A0D1C832091ED022D8330911F
S1130E70EC023E837F828886698687E08C87E980DE
S1130E80FA80472D582D662D7A858B8597E00E9430
S1130E9096031C141D048CF4C501BB2024F488277C
S1130EA099278A199B099601DD2024F422273327E8
S1130EB02C193D0982179307ECF11A141B048CF4C6
S1130EC0C601DD2024F4882799278C199D099501F2
S1130ED0BB2024F4222733272A193B0982179307BE
S1130EE064F1DD208CF4C501BB2024F48827992704
S1130EF08A199B099601DD2024F4222733272C1913
S1130F003D0982179307E4F0BB20ECF4C601DD2011
S1130F1024F4882799278C199D099501BB2024F472
S1130F20222733272A193B09821793077CF040E0D4
S1130F3050E00EC044E050E00BC041E050E008C077
S1130F4043E050E005C040E050E002C042E050E021
S1130F50CC9CC001CD9C900D900D1124AA9C9001B5
S1130F60AB9C300D300D1124820F931F811529E1A4
S1130F70920714F445E050E080319E4014F440E0C0
S1130F8050E04115510511F4332433943320A9F171
S1130F904130510591F480E00E94E40161E070E089
S1130FA080EE92E00E948A02541408F44A9460E0AD
S1130FB0842D0E940602312C20C04230510599F440
S1130FC080E00E94E40161E070E080EE92E00E9423
S1130FD08A028FA1481608F4439460E0842D0E948D
S1130FE00602312C0AC04330510521F0443051052A
S1130FF021F402C0312C01C0312CDF92CF9282EE59
S113100092E09F938F930E940B080F900F900F9084
S11310100F901DA1D2CDA0E0B0E0E1E1F8E00C9486
S1131020C20AAE014B5F5F4FFA0161917191AF014A
S11310308091F2029091F3020E942108E2E00C9464
S1131040DE0AABE0B0E0E7E2F8E00C94B20A6C012F
S11310507B018A01FC0117821682838181FFCCC146
S1131060CE0101963C01F6019381F70193FD859130
S113107093FF81917F01882309F4BAC1853239F441
S113108093FD859193FF81917F01853229F4B60107
S113109090E00E94180AE7CF912C212C312CFFE11B
S11310A0F315D8F08B3279F038F4803279F083324A
S11310B0A1F4232D20611DC08D3261F0803369F4C9
S11310C0232D216016C0832D8260382EE32DE46029
S11310D03E2E2AC0F32DF8601DC037FC2DC020ED34
S11310E0280F2A3040F08E32B9F436FC81C1232D0A
S11310F02064322E19C036FE06C08AE0989E200D68
S11311001124922E11C0EAE02E9E200D1124222ECD
S1131110F32DF0623F2E08C08C3621F4832D8068B5
S1131120382E02C0883641F4F70193FD859193FF70
S113113081917F018111B3CF982F9F7D9554933076
S113114028F40C5F1F4F9FE399830DC0833631F061
S1131150833771F0833509F059C021C0F8018081CB
S113116089830E5F1F4F88248394912C530113C0ED
S11311702801F2E04F0E511CF801A080B18036FE28
S113118003C0692D70E002C06FEF7FEFC5010E94BC
S11311900D0A4C018201F32DFF773F2E16C0280162
S11311A022E0420E511CF801A080B18036FE03C03B
S11311B0692D70E002C06FEF7FEFC5010E94020A43
S11311C04C01F32DF0683F2E820133FC1BC0822DAD
S11311D090E088169906B0F4B60180E290E00E948F
S11311E0180A2A94F4CFF50137FC859137FE8191D2
S11311F05F01B60190E00E94180A21102A9421E0B0
S1131200821A91088114910471F7E8C0843611F0B0
S1131210893641F5F80137FE07C06081718182810A
S113122093810C5F1F4F08C060817181072E000CF1
S1131230880B990B0E5F1F4FF32DFF763F2E97FF00
S113124009C090958095709561957F4F8F4F9F4F02
S1131250F0683F2E2AE030E0A3010E94540A882E51
S1131260861845C0853731F4232D2F7EB22E2AE00F
S113127030E025C0932D997FB92E8F36C1F018F434
S1131280883579F0B5C0803719F0883721F0B0C0BF
S1131290E92FE061BE2EB4FE0DC0FB2DF460BF2E1D
S11312A009C034FE0AC0292F2660B22E06C028E0E9
S11312B030E005C020E130E002C020E132E0F80176
S11312C0B7FE07C060817181828193810C5F1F4FDB
S11312D006C06081718180E090E00E5F1F4FA30122
S11312E00E94540A882E8618FB2DFF773F2E36FE67
S11312F00DC0232D2E7FA22E891458F434FE0BC06A
S113130032FC09C0832D8E7EA82E05C0B82CA32CD8
S113131003C0B82C01C0B92CA4FE0FC0FE01E80D17
S1131320F11D8081803321F49A2D997EA92E09C064
S1131330A2FE06C0B394B39404C08A2D867809F043
S1131340B394A3FC11C0A0FE06C0B21488F4280C08
S1131350922C9B180EC0B21460F4B60180E290E0A7
S11313600E94180AB394F7CFB21418F42B1802C0D1
S1131370982C212CA4FE10C0B60180E390E00E94BA
S1131380180AA2FE17C0A1FC03C088E790E002C0BF
S113139088E590E0B6010CC08A2D867859F0A1FE4C
S11313A002C08BE201C080E2A7FC8DE2B60190E0AE
S11313B00E94180A891438F4B60180E390E00E9470
S11313C0180A9A94F7CF8A94F301E80DF11D8081ED
S11313D0B60190E00E94180A8110F5CF222009F48A
S11313E042CEB60180E290E00E94180A2A94F6CF19
S11313F0F6018681978102C08FEF9FEF2B96E2E181
S11314000C94CE0AFC010590615070400110D8F78D
S1131410809590958E0F9F1F0895FC016150704038
S113142001900110D8F7809590958E0F9F1F089515
S11314300F931F93CF93DF93FB01238121FD03C0FF
S11314408FEF9FEF2CC022FF16C046815781248165
S113145035814217530744F4A081B1819D012F5F68
S11314603F4F318320838C93268137812F5F3F4FF9
S11314703783268314C08B01EC01FB010084F185C2
S1131480E02D0995892BE1F6D80116968D919C9152
S11314901797019617969C938E931697CE01DF911A
S11314A0CF911F910F910895FA01AA27283051F185
S11314B0203181F1E8946F936E7F6E5F7F4F8F4F81
S11314C09F4FAF4FB1E03ED0B4E03CD0670F781FE0
S11314D0891F9A1FA11D680F791F8A1F911DA11DC5
S11314E06A0F711D811D911DA11D20D009F46894FE
S11314F03F912AE0269F11243019305D3193DEF6A6
S1131500CF010895462F4770405D4193B3E00FD05B
S1131510C9F7F6CF462F4F70405D4A3318F0495D46
S113152031FD4052419302D0A9F7EACFB4E0A69529
S11315309795879577956795BA95C9F7009761054B
S1131540710508959B01AC010A2E069457954795A1
S113155037952795BA95C9F7620F731F841F951F96
S1131560A01D08952F923F924F925F926F927F92A7
S11315708F929F92AF92BF92CF92DF92EF92FF929F
S11315800F931F93CF93DF93CDB7DEB7CA1BDB0B4B
S11315900FB6F894DEBF0FBECDBF09942A883988F0
S11315A048885F846E847D848C849B84AA84B984F7
S11315B0C884DF80EE80FD800C811B81AA81B98103
S11315C0CE0FD11D0FB6F894DEBF0FBECDBFED0117
S10915D00895F894FFCF1A
S11315D60000000300000000D301D70100004D61A4
S11315E6696E206D656E7500506C61792067616D5A
S11315F6650043616C6962726174696F6E0050754F
S1131606742074686520736C656400696E20746860
S1131616652063656E74657200616E642065786921
S1131626742E0052657475726E0050696E67506F41
S11316366E67204D616E69610048503A0047616DDE
S113164665206F76657200506C6179206167616907
S11316566E004E6F20706F72742076616C756573C0
S1131666206368616E676564005374617274696EA1
S113167667205352414D20746573742E2E2E0057E5
S113168672697465207068617365206572726F7221
S11316963A206578745F72616D5B2534645D203D24
S11316A62025303258202873686F756C6420626573
S11316B62025303258290A005265747269657661AC
S11316C66C207068617365206572726F723A20656A
S11316D678745F72616D5B2534645D203D2025302E
S11316E63258202873686F756C6420626520253033
S11316F63258290A005352414D207465737420638D
S11317066F6D706C657465642077697468200A254A
S11317163464206572726F727320696E2077726901
S1131726746520706861736520616E64200A2534CF
S113173664206572726F727320696E2072657472AA
S1131746696576616C2070686173650A0A005445A0
S113175653543132330049443A2025642C206C65B5
S11317666E6774683A2025642C206D65737361670F
S1131776653A2025730A0045464C473A2025580AFF
S1131786005374617475733A2025582C2052585F9F
S11317967374617475733A2025580A004F7074691E
S11317A66F6E2025642073656C65637465640A0036
S10917B6200025640A0076
S9030000FC
