S013000050696E67506F6E674C61622E73726563E0
S11300000C9438000C9442000C9442000C9442006E
S11300100C9442000C9442000C9442000C94420054
S11300200C9442000C9442000C9442000C94420044
S11300300C9442000C9442000C9442000C94420034
S11300400C9442000C9442000C9442000C94420024
S11300500C9442000C9442000C9442000C94420014
S11300600C9442000C9442000C9442000C94420004
S113007011241FBECFEFD4E0DEBFCDBF0E945000DD
S11300800C9474000C9400009F7090BD89B988E1B1
S11300908AB98EEA80BD08955D9BFECF8CB9089520
S11300A08FEF8ABB6FE170E080E090E00E94440033
S11300B0C0E08C2F90E00E944C00CF5F1BBA2FEF62
S11300C08FE797E0215080409040E1F700C00000A6
S11300D08FEF8BBB2FEF8FE797E02150804090404C
S10F00E0E1F700C00000E5CFF894FFCF6A
S9030000FC
