:100000000C9438000C9455000C9455000C94550039
:100010000C9455000C9455000C9455000C9455000C
:100020000C9455000C9455000C9455000C945500FC
:100030000C9455000C9455000C9455000C945500EC
:100040000C9455000C9455000C9455000C945500DC
:100050000C9455000C9455000C9455000C945500CC
:100060000C9455000C9455000C9455000C945500BC
:1000700011241FBECFEFD4E0DEBFCDBF12E0A0E061
:10008000B1E0ECE9F9E002C005900D92AE30B107A5
:10009000D9F722E0AEE0B2E001C01D92A431B20770
:1000A000E1F70E94E1000C94CC040C9400005D9BED
:1000B000FECF8CB908955F9BFECF8CB1089590BDA3
:1000C00089B988E18AB98EEA80BD0895EF92FF92DE
:1000D0000F931F93CF93DF9389E291E00E94710108
:1000E0000E944B017C010E945001C0E0D0E000E082
:1000F00010E020C00E944B01FE01F85E8083208149
:100100002817B9F099279F938F931F922F93DF930E
:10011000CF938FE391E09F938F930E945B010F5FDA
:100120001F4F8DB79EB708960FB6F8949EBF0FBEAF
:100130008DBF2196C11598E0D907E0F2C7010E9452
:100140005001C0E0D0E0E12CF12C20C00E944B0116
:10015000FE01F85E20812817C1F099279F938F93A5
:100160001F922F93DF93CF9388E791E09F938F9314
:100170000E945B018FEFE81AF80A8DB79EB70896C8
:100180000FB6F8949EBF0FBE8DBF2196C11598E0A3
:10019000D907E0F2FF92EF921F930F9385EB91E066
:1001A0009F938F930E945B010F900F900F900F9081
:1001B0000F900F90DF91CF911F910F91FF90EF90D3
:1001C00008958FE190E00E945F008FEF8ABB86B1B7
:1001D000826086B985B7806885BF80B7806280BF3E
:1001E000EEE0F2E084E091E0938382839183808368
:1001F0000E945B008337E1F70E946600F9CF8F927F
:100200009F92AF92BF92CF92DF92EF92FF92CF93E5
:10021000DF93EC01688179818A819B816115710589
:100220008105910521F464E279ED8BE597E02DE1FC
:1002300033EF41E050E00E94320449015A019B0132
:10024000AC01A7EAB1E40E9451046B017C01ACEE61
:10025000B4EFA50194010E945F04DC01CB018C0D79
:100260009D1DAE1DBF1DB7FF03C00197A109B0487A
:1002700088839983AA83BB839F77DF91CF91FF9077
:10028000EF90DF90CF90BF90AF909F908F900895A8
:100290000E94FF00089580E091E00E94FF00089511
:1002A000A0E0B0E08093000190930101A0930201CF
:1002B000B09303010895A0E0B0E0E1E6F1E00C9412
:1002C0007404AE014B5F5F4FFA0161917191AF0110
:1002D00080911002909111020E94A101E2E00C9421
:1002E00090040F931F93CF93DF93E0911002F0914E
:1002F0001102238121FF1BC08C01D0E0C0E0F80176
:1003000081918F016091100270911102DB011896AA
:10031000ED91FC911997882331F00995892B79F398
:10032000DFEFCFEFECCF8AE00995892B19F08FEF43
:100330009FEF02C08D2F9C2FDF91CF911F910F91C6
:100340000895ABE0B0E0E7EAF1E00C9464046C01DE
:100350007B018A01FC0117821682838181FFCCC157
:10036000CE0101963C01F6019381F70193FD859141
:1003700093FF81917F01882309F4BAC1853239F452
:1003800093FD859193FF81917F01853229F4B60118
:1003900090E00E949803E7CF912C212C312CFFE1B3
:1003A000F315D8F08B3279F038F4803279F083325B
:1003B000A1F4232D20611DC08D3261F0803369F4DA
:1003C000232D216016C0832D8260382EE32DE4603A
:1003D0003E2E2AC0F32DF8601DC037FC2DC020ED45
:1003E000280F2A3040F08E32B9F436FC81C1232D1B
:1003F0002064322E19C036FE06C08AE0989E200D79
:100400001124922E11C0EAE02E9E200D1124222EDE
:10041000F32DF0623F2E08C08C3621F4832D8068C6
:10042000382E02C0883641F4F70193FD859193FF81
:1004300081917F018111B3CF982F9F7D9554933087
:1004400028F40C5F1F4F9FE399830DC0833631F072
:10045000833771F0833509F059C021C0F8018081DC
:1004600089830E5F1F4F88248394912C530113C0FE
:100470002801F2E04F0E511CF801A080B18036FE39
:1004800003C0692D70E002C06FEF7FEFC5010E94CD
:100490008D034C018201F32DFF773F2E16C02801FA
:1004A00022E0420E511CF801A080B18036FE03C04C
:1004B000692D70E002C06FEF7FEFC5010E948203DB
:1004C0004C01F32DF0683F2E820133FC1BC0822DBE
:1004D00090E088169906B0F4B60180E290E00E94A0
:1004E00098032A94F4CFF50137FC859137FE81916A
:1004F0005F01B60190E00E94980321102A9421E048
:10050000821A91088114910471F7E8C0843611F0C1
:10051000893641F5F80137FE07C06081718182811B
:1005200093810C5F1F4F08C060817181072E000C02
:10053000880B990B0E5F1F4FF32DFF763F2E97FF11
:1005400009C090958095709561957F4F8F4F9F4F13
:10055000F0683F2E2AE030E0A3010E94D403882EE9
:10056000861845C0853731F4232D2F7EB22E2AE020
:1005700030E025C0932D997FB92E8F36C1F018F445
:10058000883579F0B5C0803719F0883721F0B0C0D0
:10059000E92FE061BE2EB4FE0DC0FB2DF460BF2E2E
:1005A00009C034FE0AC0292F2660B22E06C028E0FA
:1005B00030E005C020E130E002C020E132E0F80187
:1005C000B7FE07C060817181828193810C5F1F4FEC
:1005D00006C06081718180E090E00E5F1F4FA30133
:1005E0000E94D403882E8618FB2DFF773F2E36FEFF
:1005F0000DC0232D2E7FA22E891458F434FE0BC07B
:1006000032FC09C0832D8E7EA82E05C0B82CA32CE9
:1006100003C0B82C01C0B92CA4FE0FC0FE01E80D28
:10062000F11D8081803321F49A2D997EA92E09C075
:10063000A2FE06C0B394B39404C08A2D867809F054
:10064000B394A3FC11C0A0FE06C0B21488F4280C19
:10065000922C9B180EC0B21460F4B60180E290E0B8
:100660000E949803B394F7CFB21418F42B1802C069
:10067000982C212CA4FE10C0B60180E390E00E94CB
:100680009803A2FE17C0A1FC03C088E790E002C057
:1006900088E590E0B6010CC08A2D867859F0A1FE5D
:1006A00002C08BE201C080E2A7FC8DE2B60190E0BF
:1006B0000E949803891438F4B60180E390E00E9408
:1006C00098039A94F7CF8A94F301E80DF11D808185
:1006D000B60190E00E9498038110F5CF222009F422
:1006E00042CEB60180E290E00E9498032A94F6CFB1
:1006F000F6018681978102C08FEF9FEF2B96E2E192
:100700000C948004FC010590615070400110D8F7F2
:10071000809590958E0F9F1F0895FC016150704049
:1007200001900110D8F7809590958E0F9F1F089526
:100730000F931F93CF93DF93FB01238121FD03C010
:100740008FEF9FEF2CC022FF16C046815781248176
:1007500035814217530744F4A081B1819D012F5F79
:100760003F4F318320838C93268137812F5F3F4F0A
:100770003783268314C08B01EC01FB010084F185D3
:10078000E02D0995892BE1F6D80116968D919C9163
:100790001797019617969C938E931697CE01DF912B
:1007A000CF911F910F910895FA01AA27283051F196
:1007B000203181F1E8946F936E7F6E5F7F4F8F4F92
:1007C0009F4FAF4FB1E03ED0B4E03CD0670F781FF1
:1007D000891F9A1FA11D680F791F8A1F911DA11DD6
:1007E0006A0F711D811D911DA11D20D009F468940F
:1007F0003F912AE0269F11243019305D3193DEF6B7
:10080000CF010895462F4770405D4193B3E00FD06C
:10081000C9F7F6CF462F4F70405D4A3318F0495D57
:1008200031FD4052419302D0A9F7EACFB4E0A6953A
:100830009795879577956795BA95C9F7009761055C
:10084000710508959B01AC010A2E069457954795B2
:1008500037952795BA95C9F7620F731F841F951FA7
:10086000A01D0895052E97FB1EF400940E944904D4
:1008700057FD07D00E949B0407FC03D04EF40C9454
:10088000490450954095309521953F4F4F4F5F4F0C
:10089000089590958095709561957F4F8F4F9F4FEC
:1008A00008950E94BD04A59F900DB49F900DA49F34
:1008B000800D911D11240895B7FF0C9451040E94DE
:1008C0005104821B930B08952F923F924F925F9297
:1008D0006F927F928F929F92AF92BF92CF92DF9250
:1008E000EF92FF920F931F93CF93DF93CDB7DEB7B5
:1008F000CA1BDB0B0FB6F894DEBF0FBECDBF099449
:100900002A88398848885F846E847D848C849B849F
:10091000AA84B984C884DF80EE80FD800C811B81AD
:10092000AA81B981CE0FD11D0FB6F894DEBF0FBEDC
:10093000CDBFED010895A1E21A2EAA1BBB1BFD013C
:100940000DC0AA1FBB1FEE1FFF1FA217B307E407AE
:10095000F50720F0A21BB30BE40BF50B661F771F06
:10096000881F991F1A9469F76095709580959095E6
:100970009B01AC01BD01CF010895A29FB001B39FBF
:10098000C001A39F700D811D1124911DB29F700D98
:0C099000811D1124911D0895F894FFCFE3
:10099C0001000000000000030000000057005B0095
:1009AC0000004E6F20706F72742076616C756573E9
:1009BC00206368616E676564005374617274696E5C
:1009CC0067205352414D20746573742E2E2E0057A0
:1009DC0072697465207068617365206572726F72DC
:1009EC003A206578745F72616D5B2534645D203DDF
:1009FC002025303258202873686F756C642062652E
:100A0C002025303258290A00526574726965766166
:100A1C006C207068617365206572726F723A206524
:100A2C0078745F72616D5B2534645D203D202530E8
:100A3C003258202873686F756C64206265202530ED
:100A4C003258290A005352414D2074657374206347
:100A5C006F6D706C657465642077697468200A2505
:100A6C003464206572726F727320696E20777269BC
:100A7C00746520706861736520616E64200A25348A
:100A8C0064206572726F727320696E207265747265
:0E0A9C00696576616C2070686173650A0A00F6
:00000001FF
